{
  "contractName": "MITSContract",
  "abi": [
    {
      "constant": false,
      "inputs": [
        {
          "name": "_unique_id",
          "type": "bytes32"
        },
        {
          "name": "_create_op",
          "type": "bytes32"
        },
        {
          "name": "_asset_type",
          "type": "bytes32"
        },
        {
          "name": "_txee_id",
          "type": "bytes32"
        }
      ],
      "name": "addPlantAsset",
      "outputs": [],
      "payable": false,
      "stateMutability": "nonpayable",
      "type": "function"
    },
    {
      "constant": false,
      "inputs": [],
      "name": "AYT",
      "outputs": [],
      "payable": false,
      "stateMutability": "nonpayable",
      "type": "function"
    },
    {
      "constant": false,
      "inputs": [
        {
          "name": "_unique_id",
          "type": "bytes32"
        },
        {
          "name": "_create_op",
          "type": "bytes32"
        },
        {
          "name": "_asset_type",
          "type": "bytes32"
        },
        {
          "name": "_txee_id",
          "type": "bytes32"
        }
      ],
      "name": "addPackageAsset",
      "outputs": [
        {
          "name": "",
          "type": "string"
        }
      ],
      "payable": false,
      "stateMutability": "nonpayable",
      "type": "function"
    },
    {
      "constant": true,
      "inputs": [
        {
          "name": "x",
          "type": "bytes32"
        }
      ],
      "name": "bytes32ToString",
      "outputs": [
        {
          "name": "",
          "type": "string"
        }
      ],
      "payable": false,
      "stateMutability": "view",
      "type": "function"
    },
    {
      "inputs": [
        {
          "name": "v",
          "type": "uint256"
        }
      ],
      "payable": false,
      "stateMutability": "view",
      "type": "function",
      "constant": true,
      "name": "uintToBytes",
      "outputs": [
        {
          "name": "ret",
          "type": "bytes32"
        }
      ]
    },
    {
      "anonymous": false,
      "inputs": [
        {
          "indexed": false,
          "name": "assetInfo",
          "type": "string"
        }
      ],
      "name": "AddPlantAssetEvent",
      "type": "constructor",
      "payable": false,
      "stateMutability": "nonpayable"
    },
    {
      "anonymous": false,
      "inputs": [
        {
          "indexed": false,
          "name": "assetInfo",
          "type": "string"
        }
      ],
      "name": "AddPlantAssetEvent",
      "type": "event"
    },
    {
      "anonymous": false,
      "inputs": [
        {
          "indexed": false,
          "name": "assetInfo",
          "type": "string"
        }
      ],
      "name": "ModifyPlantAssetStateEvent",
      "type": "event"
    },
    {
      "anonymous": false,
      "inputs": [
        {
          "indexed": false,
          "name": "assetInfo",
          "type": "string"
        }
      ],
      "name": "AddPackageAssetEvent",
      "type": "event"
    },
    {
      "anonymous": false,
      "inputs": [
        {
          "indexed": false,
          "name": "assetInfo",
          "type": "string"
        }
      ],
      "name": "ModifyPackageAssetStateEvent",
      "type": "event"
    },
    {
      "anonymous": false,
      "inputs": [
        {
          "indexed": false,
          "name": "s",
          "type": "string"
        }
      ],
      "name": "TestOutputStringEvent",
      "type": "event"
    },
    {
      "anonymous": false,
      "inputs": [
        {
          "indexed": false,
          "name": "x",
          "type": "bytes32"
        }
      ],
      "name": "TestOutputBytes32Event",
      "type": "event"
    },
    {
      "anonymous": false,
      "inputs": [
        {
          "indexed": false,
          "name": "x",
          "type": "int256"
        }
      ],
      "name": "TestOutputIntEvent",
      "type": "event"
    }
  ],
  "bytecode": "0x6060604052341561000f57600080fd5b610d8b8061001e6000396000f30060606040526004361061006d576000357c0100000000000000000000000000000000000000000000000000000000900463ffffffff1680632245473014610072578063287aa44c146100c0578063429f0069146100d55780639201de551461012357806394e8767d146101c3575b600080fd5b341561007d57600080fd5b6100be600480803560001916906020019091908035600019169060200190919080356000191690602001909190803560001916906020019091905050610202565b005b34156100cb57600080fd5b6100d361052e565b005b34156100e057600080fd5b610121600480803560001916906020019091908035600019169060200190919080356000191690602001909190803560001916906020019091905050610664565b005b341561012e57600080fd5b610148600480803560001916906020019091905050610990565b6040518080602001828103825283818151815260200191508051906020019080838360005b8381101561018857808201518184015260208101905061016d565b50505050905090810190601f1680156101b55780820380516001836020036101000a031916815260200191505b509250505060405180910390f35b34156101ce57600080fd5b6101e46004808035906020019091905050610b7d565b60405180826000191660001916815260200191505060405180910390f35b61020a610d1d565b610212610d1d565b61021a610d1d565b610222610d1d565b61022a610d1d565b61023389610990565b945061023e88610990565b935061024987610990565b925061025486610990565b91506102ae6102976040805190810160405280600481526020017f2c49442c00000000000000000000000000000000000000000000000000000000815250610c26565b6102a086610c26565b610c5490919063ffffffff16565b90506102d36102bc86610c26565b6102c583610c26565b610c5490919063ffffffff16565b905061032d6103166040805190810160405280600181526020017f2c00000000000000000000000000000000000000000000000000000000000000815250610c26565b61031f83610c26565b610c5490919063ffffffff16565b905061035261033b84610c26565b61034483610c26565b610c5490919063ffffffff16565b90506103ac6103956040805190810160405280600681526020017f2c545845452c0000000000000000000000000000000000000000000000000000815250610c26565b61039e83610c26565b610c5490919063ffffffff16565b90506103d16103ba83610c26565b6103c383610c26565b610c5490919063ffffffff16565b905061042b6104146040805190810160405280600881526020017f2c526573756c742c000000000000000000000000000000000000000000000000815250610c26565b61041d83610c26565b610c5490919063ffffffff16565b905061048561046e6040805190810160405280600781526020017f414c4c4f57454400000000000000000000000000000000000000000000000000815250610c26565b61047783610c26565b610c5490919063ffffffff16565b90507fe6c53dfe85aef47716d85beb4761f362dc6774be0196d931d9467a553fc94552816040518080602001828103825283818151815260200191508051906020019080838360005b838110156104e95780820151818401526020810190506104ce565b50505050905090810190601f1680156105165780820380516001836020036101000a031916815260200191505b509250505060405180910390a1505050505050505050565b610536610d1d565b6105c36105776040805190810160405280600981526020017f2c4d495453205949410000000000000000000000000000000000000000000000815250610c26565b6105b56040805190810160405280600381526020017f4159540000000000000000000000000000000000000000000000000000000000815250610c26565b610c5490919063ffffffff16565b90507fd0a263cd95976195bad2baaeb1898252900f7b0e8faae8c2d215aedb3f7e428a816040518080602001828103825283818151815260200191508051906020019080838360005b8381101561062757808201518184015260208101905061060c565b50505050905090810190601f1680156106545780820380516001836020036101000a031916815260200191505b509250505060405180910390a150565b61066c610d1d565b610674610d1d565b61067c610d1d565b610684610d1d565b61068c610d1d565b61069589610990565b94506106a088610990565b93506106ab87610990565b92506106b686610990565b91506107106106f96040805190810160405280600481526020017f2c49442c00000000000000000000000000000000000000000000000000000000815250610c26565b61070286610c26565b610c5490919063ffffffff16565b905061073561071e86610c26565b61072783610c26565b610c5490919063ffffffff16565b905061078f6107786040805190810160405280600181526020017f2c00000000000000000000000000000000000000000000000000000000000000815250610c26565b61078183610c26565b610c5490919063ffffffff16565b90506107b461079d84610c26565b6107a683610c26565b610c5490919063ffffffff16565b905061080e6107f76040805190810160405280600681526020017f2c545845452c0000000000000000000000000000000000000000000000000000815250610c26565b61080083610c26565b610c5490919063ffffffff16565b905061083361081c83610c26565b61082583610c26565b610c5490919063ffffffff16565b905061088d6108766040805190810160405280600881526020017f2c526573756c742c000000000000000000000000000000000000000000000000815250610c26565b61087f83610c26565b610c5490919063ffffffff16565b90506108e76108d06040805190810160405280600781526020017f414c4c4f57454400000000000000000000000000000000000000000000000000815250610c26565b6108d983610c26565b610c5490919063ffffffff16565b90507f35ffa5fa01df33691785447b99dae5bf4f3c197c3081718bdb96b6b2bc70ae41816040518080602001828103825283818151815260200191508051906020019080838360005b8381101561094b578082015181840152602081019050610930565b50505050905090810190601f1680156109785780820380516001836020036101000a031916815260200191505b509250505060405180910390a1505050505050505050565b610998610d1d565b6109a0610d31565b60008060006109ad610d31565b60206040518059106109bc5750595b9080825280601f01601f1916602001820160405250945060009350600092505b6020831015610a9a578260080260020a876001900402600102915060007f010000000000000000000000000000000000000000000000000000000000000002827effffffffffffffffffffffffffffffffffffffffffffffffffffffffffffff1916141515610a8d57818585815181101515610a5457fe5b9060200101907effffffffffffffffffffffffffffffffffffffffffffffffffffffffffffff1916908160001a90535083806001019450505b82806001019350506109dc565b83604051805910610aa85750595b9080825280601f01601f19166020018201604052509050600092505b83831015610b70578483815181101515610ada57fe5b9060200101517f010000000000000000000000000000000000000000000000000000000000000090047f0100000000000000000000000000000000000000000000000000000000000000028184815181101515610b3357fe5b9060200101907effffffffffffffffffffffffffffffffffffffffffffffffffffffffffffff1916908160001a9053508280600101935050610ac4565b8095505050505050919050565b600080821415610baf577f30000000000000000000000000000000000000000000000000000000000000009050610c1e565b5b6000821115610c1d576101008160019004811515610bca57fe5b0460010290507f01000000000000000000000000000000000000000000000000000000000000006030600a84811515610bff57fe5b06010260010281179050600a82811515610c1557fe5b049150610bb0565b5b809050919050565b610c2e610d45565b600060208301905060408051908101604052808451815260200182815250915050919050565b610c5c610d1d565b610c64610d1d565b60008360000151856000015101604051805910610c7e5750595b9080825280601f01601f19166020018201604052509150602082019050610cae8186602001518760000151610cd2565b610cc78560000151820185602001518660000151610cd2565b819250505092915050565b60005b602082101515610cfa5782518452602084019350602083019250602082039150610cd5565b6001826020036101000a0390508019835116818551168181178652505050505050565b602060405190810160405280600081525090565b602060405190810160405280600081525090565b6040805190810160405280600081526020016000815250905600a165627a7a72305820f524516351464ba9240bfde7d0bd241a1006aa7339e929307634fe26a323a8710029",
  "source": "pragma solidity ^0.4.11;\n// We have to specify what version of compiler this code will compile with\n\nimport \"./strings.sol\";\n\ncontract MITSContract {\n\n  using strings for *;\n\n  event AddPlantAssetEvent(\n    string assetInfo\n  );\n  event ModifyPlantAssetStateEvent(\n    string assetInfo\n  );\n\n  event AddPackageAssetEvent(\n    string assetInfo\n  );\n  event ModifyPackageAssetStateEvent(\n    string assetInfo\n  );\n\n  //  debugging events\n  event TestOutputStringEvent(\n    string s\n  );\n  event TestOutputBytes32Event(\n    bytes32 x\n  );\n  event TestOutputIntEvent(\n    int x\n  );\n\n  function MITSContract() {\n  }\n\n  // Utility functions\n  //https://ethereum.stackexchange.com/questions/29295/how-to-convert-a-bytes-to-string-in-solidity\n  function bytes32ToString(bytes32 x) constant returns (string) {\n    //TestOutputBytes32Event(x);\n    bytes memory bytesString = new bytes(32);\n    uint charCount = 0;\n    for (uint j = 0; j < 32; j++) {\n        byte char = byte(bytes32(uint(x) * 2 ** (8 * j)));\n        if (char != 0) {\n            bytesString[charCount] = char;\n            charCount++;\n        }\n    }\n    bytes memory bytesStringTrimmed = new bytes(charCount);\n    for (j = 0; j < charCount; j++) {\n        bytesStringTrimmed[j] = bytesString[j];\n    }\n    return string(bytesStringTrimmed);\n  }\n\n  //https://ethereum.stackexchange.com/questions/6591/conversion-of-uint-to-string\n  function uintToBytes(uint v) constant returns (bytes32 ret) {\n    if (v == 0) {\n        ret = '0';\n    }\n    else {\n        while (v > 0) {\n            ret = bytes32(uint(ret) / (2 ** 8));\n            ret |= bytes32(((v % 10) + 48) * 2 ** (8 * 31));\n            v /= 10;\n        }\n    }\n    return ret;\n  }\n\n  function AYT(){\n    var s = \"AYT\".toSlice().concat(\",MITS YIA\".toSlice());\n    TestOutputStringEvent(s);\n  }\n\n  function addPlantAsset(bytes32 _unique_id, bytes32 _create_op, bytes32 _asset_type, bytes32 _txee_id){\n    string memory id = bytes32ToString(_unique_id);\n    var create_op = bytes32ToString(_create_op);\n    var asset_type = bytes32ToString(_asset_type);\n    var txee_id = bytes32ToString(_txee_id);\n\n    var s = create_op.toSlice().concat(\",ID,\".toSlice());\n    s = s.toSlice().concat(id.toSlice());\n    s = s.toSlice().concat(\",\".toSlice());\n    s = s.toSlice().concat(asset_type.toSlice());\n    s = s.toSlice().concat(\",TXEE,\".toSlice());\n    s = s.toSlice().concat(txee_id.toSlice());\n    s = s.toSlice().concat(\",Result,\".toSlice());\n    s = s.toSlice().concat(\"ALLOWED\".toSlice());\n    AddPlantAssetEvent(s);\n  }\n\n  function addPackageAsset(bytes32 _unique_id, bytes32 _create_op, bytes32 _asset_type, bytes32 _txee_id){\n    string memory id = bytes32ToString(_unique_id);\n    var create_op = bytes32ToString(_create_op);\n    var asset_type = bytes32ToString(_asset_type);\n    var txee_id = bytes32ToString(_txee_id);\n\n    var s = create_op.toSlice().concat(\",ID,\".toSlice());\n    s = s.toSlice().concat(id.toSlice());\n    s = s.toSlice().concat(\",\".toSlice());\n    s = s.toSlice().concat(asset_type.toSlice());\n    s = s.toSlice().concat(\",TXEE,\".toSlice());\n    s = s.toSlice().concat(txee_id.toSlice());\n    s = s.toSlice().concat(\",Result,\".toSlice());\n    s = s.toSlice().concat(\"ALLOWED\".toSlice());\n    AddPackageAssetEvent(s);\n  }\n}\n",
  "sourcePath": "/home/smartin/hack_2018/proto/contracts/MITSContract.sol",
  "compiler": {
    "name": "solc",
    "version": "0.4.18+commit.9cf6e910.Emscripten.clang"
  },
  "schemaVersion": "1.0.1",
  "updatedAt": "2018-02-09T14:35:54.885Z"
}