{
  "contractName": "MITSContract",
  "abi": [
    {
      "constant": true,
      "inputs": [
        {
          "name": "",
          "type": "uint256"
        }
      ],
      "name": "packageStateList",
      "outputs": [
        {
          "name": "",
          "type": "bytes32"
        }
      ],
      "payable": false,
      "stateMutability": "view",
      "type": "function"
    },
    {
      "constant": false,
      "inputs": [
        {
          "name": "_unique_id",
          "type": "bytes32"
        },
        {
          "name": "_create_op",
          "type": "bytes32"
        },
        {
          "name": "_asset_type",
          "type": "bytes32"
        },
        {
          "name": "_txee_id",
          "type": "bytes32"
        }
      ],
      "name": "addPlantAsset",
      "outputs": [],
      "payable": false,
      "stateMutability": "nonpayable",
      "type": "function"
    },
    {
      "constant": false,
      "inputs": [
        {
          "name": "_state_category",
          "type": "bytes32"
        },
        {
          "name": "_txee_id",
          "type": "bytes32"
        }
      ],
      "name": "GetPlantStates",
      "outputs": [],
      "payable": false,
      "stateMutability": "nonpayable",
      "type": "function"
    },
    {
      "constant": false,
      "inputs": [],
      "name": "AYT",
      "outputs": [],
      "payable": false,
      "stateMutability": "nonpayable",
      "type": "function"
    },
    {
      "constant": false,
      "inputs": [
        {
          "name": "_unique_id",
          "type": "bytes32"
        },
        {
          "name": "_create_op",
          "type": "bytes32"
        },
        {
          "name": "_asset_type",
          "type": "bytes32"
        },
        {
          "name": "_txee_id",
          "type": "bytes32"
        }
      ],
      "name": "addPackageAsset",
      "outputs": [],
      "payable": false,
      "stateMutability": "nonpayable",
      "type": "function"
    },
    {
      "constant": false,
      "inputs": [
        {
          "name": "_unique_id",
          "type": "bytes32"
        },
        {
          "name": "_state_category",
          "type": "bytes32"
        },
        {
          "name": "_current_state",
          "type": "int256"
        },
        {
          "name": "_new_state",
          "type": "int256"
        },
        {
          "name": "_txee_id",
          "type": "bytes32"
        }
      ],
      "name": "setPlantState",
      "outputs": [],
      "payable": false,
      "stateMutability": "nonpayable",
      "type": "function"
    },
    {
      "constant": true,
      "inputs": [
        {
          "name": "",
          "type": "uint256"
        }
      ],
      "name": "plantStateList",
      "outputs": [
        {
          "name": "",
          "type": "bytes32"
        }
      ],
      "payable": false,
      "stateMutability": "view",
      "type": "function"
    },
    {
      "constant": false,
      "inputs": [
        {
          "name": "_unique_id",
          "type": "bytes32"
        },
        {
          "name": "_create_op",
          "type": "bytes32"
        },
        {
          "name": "_asset_type",
          "type": "bytes32"
        },
        {
          "name": "_txee_id",
          "type": "bytes32"
        }
      ],
      "name": "updateUser",
      "outputs": [],
      "payable": false,
      "stateMutability": "nonpayable",
      "type": "function"
    },
    {
      "constant": false,
      "inputs": [
        {
          "name": "_state_category",
          "type": "bytes32"
        },
        {
          "name": "_txee_id",
          "type": "bytes32"
        }
      ],
      "name": "GetPackageStates",
      "outputs": [],
      "payable": false,
      "stateMutability": "nonpayable",
      "type": "function"
    },
    {
      "constant": true,
      "inputs": [
        {
          "name": "x",
          "type": "bytes32"
        }
      ],
      "name": "bytes32ToString",
      "outputs": [
        {
          "name": "",
          "type": "string"
        }
      ],
      "payable": false,
      "stateMutability": "view",
      "type": "function"
    },
    {
      "constant": false,
      "inputs": [
        {
          "name": "_unique_id",
          "type": "bytes32"
        },
        {
          "name": "_state_category",
          "type": "bytes32"
        },
        {
          "name": "_current_state",
          "type": "int256"
        },
        {
          "name": "_new_state",
          "type": "int256"
        },
        {
          "name": "_txee_id",
          "type": "bytes32"
        }
      ],
      "name": "setPackageState",
      "outputs": [],
      "payable": false,
      "stateMutability": "nonpayable",
      "type": "function"
    },
    {
      "constant": true,
      "inputs": [
        {
          "name": "v",
          "type": "uint256"
        }
      ],
      "name": "uintToBytes",
      "outputs": [
        {
          "name": "ret",
          "type": "bytes32"
        }
      ],
      "payable": false,
      "stateMutability": "view",
      "type": "function"
    },
    {
      "constant": true,
      "inputs": [
        {
          "name": "a",
          "type": "string"
        },
        {
          "name": "b",
          "type": "string"
        }
      ],
      "name": "compareStrings",
      "outputs": [
        {
          "name": "",
          "type": "bool"
        }
      ],
      "payable": false,
      "stateMutability": "view",
      "type": "function"
    },
    {
      "constant": false,
      "inputs": [
        {
          "name": "_unique_id",
          "type": "bytes32"
        },
        {
          "name": "_state_category",
          "type": "bytes32"
        },
        {
          "name": "_current_state",
          "type": "int256"
        },
        {
          "name": "_new_state",
          "type": "int256"
        },
        {
          "name": "_txee_id",
          "type": "bytes32"
        }
      ],
      "name": "testSetPlantState",
      "outputs": [],
      "payable": false,
      "stateMutability": "nonpayable",
      "type": "function"
    },
    {
      "inputs": [
        {
          "name": "plantStateNames",
          "type": "bytes32[]"
        },
        {
          "name": "packageStateNames",
          "type": "bytes32[]"
        }
      ],
      "payable": false,
      "stateMutability": "nonpayable",
      "type": "constructor"
    },
    {
      "anonymous": false,
      "inputs": [
        {
          "indexed": false,
          "name": "assetInfo",
          "type": "string"
        }
      ],
      "name": "AddPlantAssetEvent",
      "type": "event"
    },
    {
      "anonymous": false,
      "inputs": [
        {
          "indexed": false,
          "name": "assetInfo",
          "type": "string"
        }
      ],
      "name": "SetPlantStateEvent",
      "type": "event"
    },
    {
      "anonymous": false,
      "inputs": [
        {
          "indexed": false,
          "name": "assetInfo",
          "type": "string"
        }
      ],
      "name": "TestSetPlantStateEvent",
      "type": "event"
    },
    {
      "anonymous": false,
      "inputs": [
        {
          "indexed": false,
          "name": "assetInfo",
          "type": "string"
        }
      ],
      "name": "GetPlantStatesEvent",
      "type": "event"
    },
    {
      "anonymous": false,
      "inputs": [
        {
          "indexed": false,
          "name": "assetInfo",
          "type": "string"
        }
      ],
      "name": "AddPackageAssetEvent",
      "type": "event"
    },
    {
      "anonymous": false,
      "inputs": [
        {
          "indexed": false,
          "name": "assetInfo",
          "type": "string"
        }
      ],
      "name": "SetPackageStateEvent",
      "type": "event"
    },
    {
      "anonymous": false,
      "inputs": [
        {
          "indexed": false,
          "name": "assetInfo",
          "type": "string"
        }
      ],
      "name": "GetPackageStatesEvent",
      "type": "event"
    },
    {
      "anonymous": false,
      "inputs": [
        {
          "indexed": false,
          "name": "userInfo",
          "type": "string"
        }
      ],
      "name": "UpdateUserEvent",
      "type": "event"
    },
    {
      "anonymous": false,
      "inputs": [
        {
          "indexed": false,
          "name": "s",
          "type": "string"
        }
      ],
      "name": "TestOutputStringEvent",
      "type": "event"
    },
    {
      "anonymous": false,
      "inputs": [
        {
          "indexed": false,
          "name": "x",
          "type": "bytes32"
        }
      ],
      "name": "TestOutputBytes32Event",
      "type": "event"
    },
    {
      "anonymous": false,
      "inputs": [
        {
          "indexed": false,
          "name": "x",
          "type": "int256"
        }
      ],
      "name": "TestOutputIntEvent",
      "type": "event"
    },
    {
      "anonymous": false,
      "inputs": [
        {
          "indexed": false,
          "name": "ayt",
          "type": "string"
        }
      ],
      "name": "AYTEvent",
      "type": "event"
    }
  ],
  "bytecode": "0x60606040526000600155600060035534156200001a57600080fd5b60405162002cb238038062002cb2833981016040528080518201919060200180518201919050508160009080519060200190620000599291906200008b565b50600060018190555080600290805190602001906200007a9291906200008b565b50600060038190555050506200010b565b828054828255906000526020600020908101928215620000d0579160200282015b82811115620000cf578251829060001916905591602001919060010190620000ac565b5b509050620000df9190620000e3565b5090565b6200010891905b8082111562000104576000816000905550600101620000ea565b5090565b90565b612b97806200011b6000396000f3006060604052600436106100d0576000357c0100000000000000000000000000000000000000000000000000000000900463ffffffff16806301504a9d146100d55780632245473014610114578063249a57de14610162578063287aa44c14610196578063429f0069146101ab57806360b9295c146101f9578063675f94cd1461024c57806368bf33f81461028b57806369144147146102d95780639201de551461030d57806392b9c984146103ad57806394e8767d14610400578063bed34bba1461043f578063f7cd6dc9146104f7575b600080fd5b34156100e057600080fd5b6100f6600480803590602001909190505061054a565b60405180826000191660001916815260200191505060405180910390f35b341561011f57600080fd5b61016060048080356000191690602001909190803560001916906020019091908035600019169060200190919080356000191690602001909190505061056e565b005b341561016d57600080fd5b6101946004808035600019169060200190919080356000191690602001909190505061089a565b005b34156101a157600080fd5b6101a9610bbb565b005b34156101b657600080fd5b6101f7600480803560001916906020019091908035600019169060200190919080356000191690602001909190803560001916906020019091905050610cf1565b005b341561020457600080fd5b61024a600480803560001916906020019091908035600019169060200190919080359060200190919080359060200190919080356000191690602001909190505061101d565b005b341561025757600080fd5b61026d60048080359060200190919050506114a4565b60405180826000191660001916815260200191505060405180910390f35b341561029657600080fd5b6102d76004808035600019169060200190919080356000191690602001909190803560001916906020019091908035600019169060200190919050506114c8565b005b34156102e457600080fd5b61030b600480803560001916906020019091908035600019169060200190919050506117f4565b005b341561031857600080fd5b610332600480803560001916906020019091905050611b15565b6040518080602001828103825283818151815260200191508051906020019080838360005b83811015610372578082015181840152602081019050610357565b50505050905090810190601f16801561039f5780820380516001836020036101000a031916815260200191505b509250505060405180910390f35b34156103b857600080fd5b6103fe6004808035600019169060200190919080356000191690602001909190803590602001909190803590602001909190803560001916906020019091905050611d02565b005b341561040b57600080fd5b61042160048080359060200190919050506121b0565b60405180826000191660001916815260200191505060405180910390f35b341561044a57600080fd5b6104dd600480803590602001908201803590602001908080601f0160208091040260200160405190810160405280939291908181526020018383808284378201915050505050509190803590602001908201803590602001908080601f01602080910402602001604051908101604052809392919081815260200183838082843782019150505050505091905050612259565b604051808215151515815260200191505060405180910390f35b341561050257600080fd5b6105486004808035600019169060200190919080356000191690602001909190803590602001909190803590602001909190803560001916906020019091905050612332565b005b60028181548110151561055957fe5b90600052602060002090016000915090505481565b610576612b29565b61057e612b29565b610586612b29565b61058e612b29565b610596612b29565b61059f89611b15565b94506105aa88611b15565b93506105b587611b15565b92506105c086611b15565b915061061a6106036040805190810160405280600181526020017f2c00000000000000000000000000000000000000000000000000000000000000815250612a32565b61060c86612a32565b612a6090919063ffffffff16565b905061063f61062884612a32565b61063183612a32565b612a6090919063ffffffff16565b90506106996106826040805190810160405280600481526020017f2c49442c00000000000000000000000000000000000000000000000000000000815250612a32565b61068b83612a32565b612a6090919063ffffffff16565b90506106be6106a786612a32565b6106b083612a32565b612a6090919063ffffffff16565b90506107186107016040805190810160405280600681526020017f2c545845452c0000000000000000000000000000000000000000000000000000815250612a32565b61070a83612a32565b612a6090919063ffffffff16565b905061073d61072683612a32565b61072f83612a32565b612a6090919063ffffffff16565b90506107976107806040805190810160405280600881526020017f2c526573756c742c000000000000000000000000000000000000000000000000815250612a32565b61078983612a32565b612a6090919063ffffffff16565b90506107f16107da6040805190810160405280600781526020017f414c4c4f57454400000000000000000000000000000000000000000000000000815250612a32565b6107e383612a32565b612a6090919063ffffffff16565b90507fe6c53dfe85aef47716d85beb4761f362dc6774be0196d931d9467a553fc94552816040518080602001828103825283818151815260200191508051906020019080838360005b8381101561085557808201518184015260208101905061083a565b50505050905090810190601f1680156108825780820380516001836020036101000a031916815260200191505b509250505060405180910390a1505050505050505050565b6108a2612b29565b6108aa612b29565b6108b2612b29565b60006108bd86611b15565b93506108c885611b15565b925061092261090b6040805190810160405280600181526020017f2c00000000000000000000000000000000000000000000000000000000000000815250612a32565b61091486612a32565b612a6090919063ffffffff16565b9150600090505b6000805490508110156109e45761097b61096461095f60008481548110151561094e57fe5b906000526020600020900154611b15565b612a32565b61096d84612a32565b612a6090919063ffffffff16565b91506109d56109be6040805190810160405280600181526020017f2c00000000000000000000000000000000000000000000000000000000000000815250612a32565b6109c784612a32565b612a6090919063ffffffff16565b91508080600101915050610929565b610a3c610a256040805190810160405280600581526020017f545845452c000000000000000000000000000000000000000000000000000000815250612a32565b610a2e84612a32565b612a6090919063ffffffff16565b9150610a61610a4a84612a32565b610a5384612a32565b612a6090919063ffffffff16565b9150610abb610aa46040805190810160405280600881526020017f2c526573756c742c000000000000000000000000000000000000000000000000815250612a32565b610aad84612a32565b612a6090919063ffffffff16565b9150610b15610afe6040805190810160405280600781526020017f414c4c4f57454400000000000000000000000000000000000000000000000000815250612a32565b610b0784612a32565b612a6090919063ffffffff16565b91507fdf7150a95c9c3bdf89b61a115e1eb404a1550cade0b6cd5a006ddb0805a8cef4826040518080602001828103825283818151815260200191508051906020019080838360005b83811015610b79578082015181840152602081019050610b5e565b50505050905090810190601f168015610ba65780820380516001836020036101000a031916815260200191505b509250505060405180910390a1505050505050565b610bc3612b29565b610c50610c046040805190810160405280600981526020017f2c4d495453205949410000000000000000000000000000000000000000000000815250612a32565b610c426040805190810160405280600381526020017f4159540000000000000000000000000000000000000000000000000000000000815250612a32565b612a6090919063ffffffff16565b90507ff1fead58f4b32e6212a982cd11f0ebf3726e465f2ab519f2ad61284882dfca41816040518080602001828103825283818151815260200191508051906020019080838360005b83811015610cb4578082015181840152602081019050610c99565b50505050905090810190601f168015610ce15780820380516001836020036101000a031916815260200191505b509250505060405180910390a150565b610cf9612b29565b610d01612b29565b610d09612b29565b610d11612b29565b610d19612b29565b610d2289611b15565b9450610d2d88611b15565b9350610d3887611b15565b9250610d4386611b15565b9150610d9d610d866040805190810160405280600481526020017f2c49442c00000000000000000000000000000000000000000000000000000000815250612a32565b610d8f86612a32565b612a6090919063ffffffff16565b9050610dc2610dab86612a32565b610db483612a32565b612a6090919063ffffffff16565b9050610e1c610e056040805190810160405280600181526020017f2c00000000000000000000000000000000000000000000000000000000000000815250612a32565b610e0e83612a32565b612a6090919063ffffffff16565b9050610e41610e2a84612a32565b610e3383612a32565b612a6090919063ffffffff16565b9050610e9b610e846040805190810160405280600681526020017f2c545845452c0000000000000000000000000000000000000000000000000000815250612a32565b610e8d83612a32565b612a6090919063ffffffff16565b9050610ec0610ea983612a32565b610eb283612a32565b612a6090919063ffffffff16565b9050610f1a610f036040805190810160405280600881526020017f2c526573756c742c000000000000000000000000000000000000000000000000815250612a32565b610f0c83612a32565b612a6090919063ffffffff16565b9050610f74610f5d6040805190810160405280600781526020017f414c4c4f57454400000000000000000000000000000000000000000000000000815250612a32565b610f6683612a32565b612a6090919063ffffffff16565b90507f35ffa5fa01df33691785447b99dae5bf4f3c197c3081718bdb96b6b2bc70ae41816040518080602001828103825283818151815260200191508051906020019080838360005b83811015610fd8578082015181840152602081019050610fbd565b50505050905090810190601f1680156110055780820380516001836020036101000a031916815260200191505b509250505060405180910390a1505050505050505050565b611025612b29565b61102d612b29565b611035612b29565b61103d612b29565b611045612b29565b600061104f612b29565b611057612b29565b7fd0a263cd95976195bad2baaeb1898252900f7b0e8faae8c2d215aedb3f7e428a6040518080602001828103825260118152602001807f546f7020736574506c616e74537461746500000000000000000000000000000081525060200191505060405180910390a16110c88d611b15565b97506110d38c611b15565b96506110f860008b8154811015156110e757fe5b906000526020600020900154611b15565b955061111d60008c81548110151561110c57fe5b906000526020600020900154611b15565b945061112889611b15565b93508960018190555061113c6001546121b0565b925061114783611b15565b91506111a161118a6040805190810160405280600481526020017f2c49442c00000000000000000000000000000000000000000000000000000000815250612a32565b61119389612a32565b612a6090919063ffffffff16565b90506111c66111af89612a32565b6111b883612a32565b612a6090919063ffffffff16565b90506112206112096040805190810160405280600981526020017f2c63757272656e742c0000000000000000000000000000000000000000000000815250612a32565b61121283612a32565b612a6090919063ffffffff16565b905061124561122e86612a32565b61123783612a32565b612a6090919063ffffffff16565b905061129f6112886040805190810160405280600681526020017f2c6e6578742c0000000000000000000000000000000000000000000000000000815250612a32565b61129183612a32565b612a6090919063ffffffff16565b90506112c46112ad87612a32565b6112b683612a32565b612a6090919063ffffffff16565b905061131e6113076040805190810160405280600681526020017f2c545845452c0000000000000000000000000000000000000000000000000000815250612a32565b61131083612a32565b612a6090919063ffffffff16565b905061134361132c85612a32565b61133583612a32565b612a6090919063ffffffff16565b905061139d6113866040805190810160405280600881526020017f2c526573756c742c000000000000000000000000000000000000000000000000815250612a32565b61138f83612a32565b612a6090919063ffffffff16565b90506113f76113e06040805190810160405280600781526020017f414c4c4f57454400000000000000000000000000000000000000000000000000815250612a32565b6113e983612a32565b612a6090919063ffffffff16565b90507f366514b314adbd130b4541a8f3b2df5d5dc545733f1ed56e49114df383a943d0816040518080602001828103825283818151815260200191508051906020019080838360005b8381101561145b578082015181840152602081019050611440565b50505050905090810190601f1680156114885780820380516001836020036101000a031916815260200191505b509250505060405180910390a150505050505050505050505050565b6000818154811015156114b357fe5b90600052602060002090016000915090505481565b6114d0612b29565b6114d8612b29565b6114e0612b29565b6114e8612b29565b6114f0612b29565b6114f989611b15565b945061150488611b15565b935061150f87611b15565b925061151a86611b15565b915061157461155d6040805190810160405280600481526020017f2c49442c00000000000000000000000000000000000000000000000000000000815250612a32565b61156686612a32565b612a6090919063ffffffff16565b905061159961158286612a32565b61158b83612a32565b612a6090919063ffffffff16565b90506115f36115dc6040805190810160405280600181526020017f2c00000000000000000000000000000000000000000000000000000000000000815250612a32565b6115e583612a32565b612a6090919063ffffffff16565b905061161861160184612a32565b61160a83612a32565b612a6090919063ffffffff16565b905061167261165b6040805190810160405280600681526020017f2c545845452c0000000000000000000000000000000000000000000000000000815250612a32565b61166483612a32565b612a6090919063ffffffff16565b905061169761168083612a32565b61168983612a32565b612a6090919063ffffffff16565b90506116f16116da6040805190810160405280600881526020017f2c526573756c742c000000000000000000000000000000000000000000000000815250612a32565b6116e383612a32565b612a6090919063ffffffff16565b905061174b6117346040805190810160405280600781526020017f414c4c4f57454400000000000000000000000000000000000000000000000000815250612a32565b61173d83612a32565b612a6090919063ffffffff16565b90507fe45d3ad0d91074108ad255327b22ea334616858b226b85f4a8870eca0ce8ec68816040518080602001828103825283818151815260200191508051906020019080838360005b838110156117af578082015181840152602081019050611794565b50505050905090810190601f1680156117dc5780820380516001836020036101000a031916815260200191505b509250505060405180910390a1505050505050505050565b6117fc612b29565b611804612b29565b61180c612b29565b600061181786611b15565b935061182285611b15565b925061187c6118656040805190810160405280600181526020017f2c00000000000000000000000000000000000000000000000000000000000000815250612a32565b61186e86612a32565b612a6090919063ffffffff16565b9150600090505b60028054905081101561193e576118d56118be6118b96002848154811015156118a857fe5b906000526020600020900154611b15565b612a32565b6118c784612a32565b612a6090919063ffffffff16565b915061192f6119186040805190810160405280600181526020017f2c00000000000000000000000000000000000000000000000000000000000000815250612a32565b61192184612a32565b612a6090919063ffffffff16565b91508080600101915050611883565b61199661197f6040805190810160405280600581526020017f545845452c000000000000000000000000000000000000000000000000000000815250612a32565b61198884612a32565b612a6090919063ffffffff16565b91506119bb6119a484612a32565b6119ad84612a32565b612a6090919063ffffffff16565b9150611a156119fe6040805190810160405280600881526020017f2c526573756c742c000000000000000000000000000000000000000000000000815250612a32565b611a0784612a32565b612a6090919063ffffffff16565b9150611a6f611a586040805190810160405280600781526020017f414c4c4f57454400000000000000000000000000000000000000000000000000815250612a32565b611a6184612a32565b612a6090919063ffffffff16565b91507fe91c1a47ea6d41851d213cdc310f816449e3c27c7e566f7aaba0eccbbca1225f826040518080602001828103825283818151815260200191508051906020019080838360005b83811015611ad3578082015181840152602081019050611ab8565b50505050905090810190601f168015611b005780820380516001836020036101000a031916815260200191505b509250505060405180910390a1505050505050565b611b1d612b29565b611b25612b3d565b6000806000611b32612b3d565b6020604051805910611b415750595b9080825280601f01601f1916602001820160405250945060009350600092505b6020831015611c1f578260080260020a876001900402600102915060007f010000000000000000000000000000000000000000000000000000000000000002827effffffffffffffffffffffffffffffffffffffffffffffffffffffffffffff1916141515611c1257818585815181101515611bd957fe5b9060200101907effffffffffffffffffffffffffffffffffffffffffffffffffffffffffffff1916908160001a90535083806001019450505b8280600101935050611b61565b83604051805910611c2d5750595b9080825280601f01601f19166020018201604052509050600092505b83831015611cf5578483815181101515611c5f57fe5b9060200101517f010000000000000000000000000000000000000000000000000000000000000090047f0100000000000000000000000000000000000000000000000000000000000000028184815181101515611cb857fe5b9060200101907effffffffffffffffffffffffffffffffffffffffffffffffffffffffffffff1916908160001a9053508280600101935050611c49565b8095505050505050919050565b611d0a612b29565b611d12612b29565b611d1a612b29565b611d22612b29565b611d2a612b29565b6000611d34612b29565b611d3c612b29565b7fd0a263cd95976195bad2baaeb1898252900f7b0e8faae8c2d215aedb3f7e428a6040518080602001828103825260138152602001807f546f70207365745061636b61676553746174650000000000000000000000000081525060200191505060405180910390a1611dad8d611b15565b9750611db88c611b15565b9650611ddd60028b815481101515611dcc57fe5b906000526020600020900154611b15565b9550611e0260028c815481101515611df157fe5b906000526020600020900154611b15565b9450611e0d89611b15565b935089600381905550611e238c600190046121b0565b9250611e2e83611b15565b9150611e88611e716040805190810160405280600481526020017f2c49442c00000000000000000000000000000000000000000000000000000000815250612a32565b611e7a89612a32565b612a6090919063ffffffff16565b9050611ead611e9689612a32565b611e9f83612a32565b612a6090919063ffffffff16565b9050611f07611ef06040805190810160405280600981526020017f2c63757272656e742c0000000000000000000000000000000000000000000000815250612a32565b611ef983612a32565b612a6090919063ffffffff16565b9050611f2c611f1586612a32565b611f1e83612a32565b612a6090919063ffffffff16565b9050611f86611f6f6040805190810160405280600681526020017f2c6e6578742c0000000000000000000000000000000000000000000000000000815250612a32565b611f7883612a32565b612a6090919063ffffffff16565b9050611fab611f9487612a32565b611f9d83612a32565b612a6090919063ffffffff16565b9050612005611fee6040805190810160405280600681526020017f2c545845452c0000000000000000000000000000000000000000000000000000815250612a32565b611ff783612a32565b612a6090919063ffffffff16565b905061202a61201385612a32565b61201c83612a32565b612a6090919063ffffffff16565b905061208461206d6040805190810160405280600881526020017f2c526573756c742c000000000000000000000000000000000000000000000000815250612a32565b61207683612a32565b612a6090919063ffffffff16565b90506120de6120c76040805190810160405280600c81526020017f414c4c4f5745442c6e65772c0000000000000000000000000000000000000000815250612a32565b6120d083612a32565b612a6090919063ffffffff16565b90506121036120ec83612a32565b6120f583612a32565b612a6090919063ffffffff16565b90507ffe9062e820eff8a7630952bf56db24af3943b7beb14c22603af8697b7e6e8993816040518080602001828103825283818151815260200191508051906020019080838360005b8381101561216757808201518184015260208101905061214c565b50505050905090810190601f1680156121945780820380516001836020036101000a031916815260200191505b509250505060405180910390a150505050505050505050505050565b6000808214156121e2577f30000000000000000000000000000000000000000000000000000000000000009050612251565b5b60008211156122505761010081600190048115156121fd57fe5b0460010290507f01000000000000000000000000000000000000000000000000000000000000006030600a8481151561223257fe5b06010260010281179050600a8281151561224857fe5b0491506121e3565b5b809050919050565b6000816040518082805190602001908083835b602083101515612291578051825260208201915060208101905060208303925061226c565b6001836020036101000a038019825116818451168082178552505050505050905001915050604051809103902060001916836040518082805190602001908083835b6020831015156122f857805182526020820191506020810190506020830392506122d3565b6001836020036101000a03801982511681845116808217855250505050505090500191505060405180910390206000191614905092915050565b61233a612b29565b612342612b29565b61234a612b29565b612352612b29565b61235a612b29565b6000806000612367612b29565b61236f612b29565b6123788f611b15565b99506123838e611b15565b98506123a860008d81548110151561239757fe5b906000526020600020900154611b15565b97506123cd60008e8154811015156123bc57fe5b906000526020600020900154611b15565b96506123d88b611b15565b95508b60018190555060016000805490500394507f66616c736500000000000000000000000000000000000000000000000000000093507f4f4b0000000000000000000000000000000000000000000000000000000000009250848d1415612485577f66616c736500000000000000000000000000000000000000000000000000000093507f444953504f5345440000000000000000000000000000000000000000000000009250612523565b8b60018e0114156124db577f4f4b00000000000000000000000000000000000000000000000000000000000092507f74727565000000000000000000000000000000000000000000000000000000009350612522565b7f66616c736500000000000000000000000000000000000000000000000000000093507f4f55545f4f465f53455155454e4345000000000000000000000000000000000092505b5b61252c83611b15565b91507fd0a263cd95976195bad2baaeb1898252900f7b0e8faae8c2d215aedb3f7e428a826040518080602001828103825283818151815260200191508051906020019080838360005b83811015612590578082015181840152602081019050612575565b50505050905090810190601f1680156125bd5780820380516001836020036101000a031916815260200191505b509250505060405180910390a161262261260b6040805190810160405280600481526020017f2c49442c00000000000000000000000000000000000000000000000000000000815250612a32565b6126148b612a32565b612a6090919063ffffffff16565b90506126476126308b612a32565b61263983612a32565b612a6090919063ffffffff16565b90506126a161268a6040805190810160405280600981526020017f2c63757272656e742c0000000000000000000000000000000000000000000000815250612a32565b61269383612a32565b612a6090919063ffffffff16565b90506126c66126af88612a32565b6126b883612a32565b612a6090919063ffffffff16565b90506127206127096040805190810160405280600681526020017f2c6e6578742c0000000000000000000000000000000000000000000000000000815250612a32565b61271283612a32565b612a6090919063ffffffff16565b905061274561272e89612a32565b61273783612a32565b612a6090919063ffffffff16565b905061279f6127886040805190810160405280600681526020017f2c545845452c0000000000000000000000000000000000000000000000000000815250612a32565b61279183612a32565b612a6090919063ffffffff16565b90506127c46127ad87612a32565b6127b683612a32565b612a6090919063ffffffff16565b905061281e6128076040805190810160405280600881526020017f2c526573756c742c000000000000000000000000000000000000000000000000815250612a32565b61281083612a32565b612a6090919063ffffffff16565b90507f7472756500000000000000000000000000000000000000000000000000000000846000191614156128ab576128a461288d6040805190810160405280600781526020017f414c4c4f57454400000000000000000000000000000000000000000000000000815250612a32565b61289683612a32565b612a6090919063ffffffff16565b9050612906565b6129036128ec6040805190810160405280600b81526020017f4e4f545f414c4c4f574544000000000000000000000000000000000000000000815250612a32565b6128f583612a32565b612a6090919063ffffffff16565b90505b61295e6129476040805190810160405280600881526020017f2c526561736f6e2c000000000000000000000000000000000000000000000000815250612a32565b61295083612a32565b612a6090919063ffffffff16565b905061298361296c83612a32565b61297583612a32565b612a6090919063ffffffff16565b90507fc61c4a330dc2ffaf2afac96aa65510aacaee7fa390546f534f80643193346917816040518080602001828103825283818151815260200191508051906020019080838360005b838110156129e75780820151818401526020810190506129cc565b50505050905090810190601f168015612a145780820380516001836020036101000a031916815260200191505b509250505060405180910390a1505050505050505050505050505050565b612a3a612b51565b600060208301905060408051908101604052808451815260200182815250915050919050565b612a68612b29565b612a70612b29565b60008360000151856000015101604051805910612a8a5750595b9080825280601f01601f19166020018201604052509150602082019050612aba8186602001518760000151612ade565b612ad38560000151820185602001518660000151612ade565b819250505092915050565b60005b602082101515612b065782518452602084019350602083019250602082039150612ae1565b6001826020036101000a0390508019835116818551168181178652505050505050565b602060405190810160405280600081525090565b602060405190810160405280600081525090565b6040805190810160405280600081526020016000815250905600a165627a7a72305820c8cb4e218ee223e1f4c514362c9091ef78e3dca1fb5d43f44094b0e2f9495f4f0029",
  "source": "pragma solidity ^0.4.11;\n// We have to specify what version of compiler this code will compile with\n\nimport \"./strings.sol\";\n\ncontract MITSContract {\n\n  using strings for *;\n\n  event AddPlantAssetEvent(\n    string assetInfo\n  );\n  event SetPlantStateEvent(\n    string assetInfo\n  );\n  event TestSetPlantStateEvent(\n    string assetInfo\n  );\n  event GetPlantStatesEvent(\n    string assetInfo\n  );\n\n  event AddPackageAssetEvent(\n    string assetInfo\n  );\n  event SetPackageStateEvent(\n    string assetInfo\n  );\n  event GetPackageStatesEvent(\n    string assetInfo\n  );\n\n  event UpdateUserEvent(\n    string userInfo\n  );\n\n  //  debugging events\n  event TestOutputStringEvent(\n    string s\n  );\n  event TestOutputBytes32Event(\n    bytes32 x\n  );\n  event TestOutputIntEvent(\n    int x\n  );\n\n  event AYTEvent(\n    string ayt\n  );\n\n\n  bytes32[] public plantStateList;\n  uint256 plantStateIndex = 0;\n\n  bytes32[] public packageStateList;\n  uint256 packageStateIndex = 0;\n\n  function MITSContract(bytes32[] plantStateNames, bytes32[] packageStateNames) {\n      plantStateList = plantStateNames;\n      plantStateIndex = 0;\n      packageStateList = packageStateNames;\n      packageStateIndex = 0;\n  }\n\n  // Utility functions\n  //https://ethereum.stackexchange.com/questions/29295/how-to-convert-a-bytes-to-string-in-solidity\n  function bytes32ToString(bytes32 x) constant returns (string) {\n    //TestOutputBytes32Event(x);\n    bytes memory bytesString = new bytes(32);\n    uint charCount = 0;\n    for (uint j = 0; j < 32; j++) {\n        byte char = byte(bytes32(uint(x) * 2 ** (8 * j)));\n        if (char != 0) {\n            bytesString[charCount] = char;\n            charCount++;\n        }\n    }\n    bytes memory bytesStringTrimmed = new bytes(charCount);\n    for (j = 0; j < charCount; j++) {\n        bytesStringTrimmed[j] = bytesString[j];\n    }\n    return string(bytesStringTrimmed);\n  }\n\n  //https://ethereum.stackexchange.com/questions/6591/conversion-of-uint-to-string\n  function uintToBytes(uint v) constant returns (bytes32 ret) {\n    if (v == 0) {\n        ret = '0';\n    }\n    else {\n        while (v > 0) {\n            ret = bytes32(uint(ret) / (2 ** 8));\n            ret |= bytes32(((v % 10) + 48) * 2 ** (8 * 31));\n            v /= 10;\n        }\n    }\n    return ret;\n  }\n\n  function compareStrings (string a, string b) view returns (bool){\n         return keccak256(a) == keccak256(b);\n   }\n\n  function AYT(){\n    var s = \"AYT\".toSlice().concat(\",MITS YIA\".toSlice());\n    AYTEvent(s);\n  }\n\n  function addPlantAsset(bytes32 _unique_id, bytes32 _create_op, bytes32 _asset_type, bytes32 _txee_id){\n    string memory id = bytes32ToString(_unique_id);\n    var create_op = bytes32ToString(_create_op);\n    var asset_type = bytes32ToString(_asset_type);\n    var txee_id = bytes32ToString(_txee_id);\n\n    var s = create_op.toSlice().concat(\",\".toSlice());\n    s = s.toSlice().concat(asset_type.toSlice());\n    s = s.toSlice().concat(\",ID,\".toSlice());\n    s = s.toSlice().concat(id.toSlice());\n    s = s.toSlice().concat(\",TXEE,\".toSlice());\n    s = s.toSlice().concat(txee_id.toSlice());\n    s = s.toSlice().concat(\",Result,\".toSlice());\n    s = s.toSlice().concat(\"ALLOWED\".toSlice());\n    AddPlantAssetEvent(s);\n  }\n\n  // set alowed with no regard to \"smart contract\"\n  function setPlantState(bytes32 _unique_id, bytes32 _state_category, int _current_state, int _new_state, bytes32 _txee_id){\n    TestOutputStringEvent(\"Top setPlantState\");\n    string memory id = bytes32ToString(_unique_id);\n    var state_category = bytes32ToString(_state_category);\n    var new_state = bytes32ToString(plantStateList[uint256(_new_state)]);\n    var current_state = bytes32ToString(plantStateList[uint256(_current_state)]);\n    var txee_id = bytes32ToString(_txee_id);\n    plantStateIndex = uint256(_new_state);\n    var stg_val = uintToBytes(uint(plantStateIndex));\n    var state_stg = bytes32ToString(stg_val);\n\n    var s = state_category.toSlice().concat(\",ID,\".toSlice());\n    s = s.toSlice().concat(id.toSlice());\n    s = s.toSlice().concat(\",current,\".toSlice());\n    s = s.toSlice().concat(current_state.toSlice());\n    s = s.toSlice().concat(\",next,\".toSlice());\n    s = s.toSlice().concat(new_state.toSlice());\n    s = s.toSlice().concat(\",TXEE,\".toSlice());\n    s = s.toSlice().concat(txee_id.toSlice());\n    s = s.toSlice().concat(\",Result,\".toSlice());\n    s = s.toSlice().concat(\"ALLOWED\".toSlice());\n    //s = s.toSlice().concat(\",new,\".toSlice());\n    //s = s.toSlice().concat(state_stg.toSlice());\n    SetPlantStateEvent(s);\n  }\n\n  // set alowed with no regard to \"smart contract\"\n  function testSetPlantState(bytes32 _unique_id, bytes32 _state_category, int _current_state, int _new_state, bytes32 _txee_id){\n    //TestOutputStringEvent(\"Top testSetPlantState\");\n\n        string memory id = bytes32ToString(_unique_id);\n        var state_category = bytes32ToString(_state_category);\n        var new_state = bytes32ToString(plantStateList[uint256(_new_state)]);\n        var current_state = bytes32ToString(plantStateList[uint256(_current_state)]);\n        var txee_id = bytes32ToString(_txee_id);\n        plantStateIndex = uint256(_new_state);\n        //var stg_val = uintToBytes(uint(plantStateIndex));\n        //var state_stg = bytes32ToString(stg_val);\n\n        uint256 states_count = (plantStateList.length - 1);\n        bytes32 allow_new_state = 'false';\n        bytes32 reason = 'OK';\n        if(uint256(_current_state) == states_count){\n          allow_new_state = 'false';\n          reason = 'DISPOSED';\n        }else if((uint256(_current_state) + 1) == uint256(_new_state)){\n          reason = 'OK';\n          allow_new_state = 'true';\n        }else{\n          allow_new_state = 'false';\n          reason = 'OUT_OF_SEQUENCE';\n        }\n        //var trans_result = bytes32ToString(allow_new_state);\n        //TestOutputStringEvent(trans_result);\n\n        var reason_stg = bytes32ToString(reason);\n        TestOutputStringEvent(reason_stg);\n\n\n    var s = state_category.toSlice().concat(\",ID,\".toSlice());\n    s = s.toSlice().concat(id.toSlice());\n    s = s.toSlice().concat(\",current,\".toSlice());\n    s = s.toSlice().concat(current_state.toSlice());\n    s = s.toSlice().concat(\",next,\".toSlice());\n    s = s.toSlice().concat(new_state.toSlice());\n    s = s.toSlice().concat(\",TXEE,\".toSlice());\n    s = s.toSlice().concat(txee_id.toSlice());\n    s = s.toSlice().concat(\",Result,\".toSlice());\n    if(allow_new_state == 'true'){\n      s = s.toSlice().concat(\"ALLOWED\".toSlice());\n    }else{\n      s = s.toSlice().concat(\"NOT_ALLOWED\".toSlice());\n    }\n    s = s.toSlice().concat(\",Reason,\".toSlice());\n    s = s.toSlice().concat(reason_stg.toSlice());\n    TestSetPlantStateEvent(s);\n  }\n\n  function GetPlantStates(bytes32 _state_category, bytes32 _txee_id){\n    var state_category = bytes32ToString(_state_category);\n    var txee_id = bytes32ToString(_txee_id);\n    var s = state_category.toSlice().concat(\",\".toSlice());\n    for(uint i = 0; i < uint(plantStateList.length); i++){\n      s = s.toSlice().concat(bytes32ToString(plantStateList[uint256(i)]).toSlice());\n      s = s.toSlice().concat(\",\".toSlice());\n    }\n    s = s.toSlice().concat(\"TXEE,\".toSlice());\n    s = s.toSlice().concat(txee_id.toSlice());\n    s = s.toSlice().concat(\",Result,\".toSlice());\n    s = s.toSlice().concat(\"ALLOWED\".toSlice());\n    GetPlantStatesEvent(s);\n  }\n\n  function addPackageAsset(bytes32 _unique_id, bytes32 _create_op, bytes32 _asset_type, bytes32 _txee_id){\n    string memory id = bytes32ToString(_unique_id);\n    var create_op = bytes32ToString(_create_op);\n    var asset_type = bytes32ToString(_asset_type);\n    var txee_id = bytes32ToString(_txee_id);\n\n    var s = create_op.toSlice().concat(\",ID,\".toSlice());\n    s = s.toSlice().concat(id.toSlice());\n    s = s.toSlice().concat(\",\".toSlice());\n    s = s.toSlice().concat(asset_type.toSlice());\n    s = s.toSlice().concat(\",TXEE,\".toSlice());\n    s = s.toSlice().concat(txee_id.toSlice());\n    s = s.toSlice().concat(\",Result,\".toSlice());\n    s = s.toSlice().concat(\"ALLOWED\".toSlice());\n    AddPackageAssetEvent(s);\n  }\n\n  // set alowed with no regard to \"smart contract\"\n  function setPackageState(bytes32 _unique_id, bytes32 _state_category, int _current_state, int _new_state, bytes32 _txee_id){\n    TestOutputStringEvent(\"Top setPackageState\");\n    string memory id = bytes32ToString(_unique_id);\n    var state_category = bytes32ToString(_state_category);\n    var new_state = bytes32ToString(packageStateList[uint256(_new_state)]);\n    var current_state = bytes32ToString(packageStateList[uint256(_current_state)]);\n    var txee_id = bytes32ToString(_txee_id);\n    packageStateIndex = uint256(_new_state);\n    var stg_val = uintToBytes(uint(_state_category));\n    var state_stg = bytes32ToString(stg_val);\n\n    var s = state_category.toSlice().concat(\",ID,\".toSlice());\n    s = s.toSlice().concat(id.toSlice());\n    s = s.toSlice().concat(\",current,\".toSlice());\n    s = s.toSlice().concat(current_state.toSlice());\n    s = s.toSlice().concat(\",next,\".toSlice());\n    s = s.toSlice().concat(new_state.toSlice());\n    s = s.toSlice().concat(\",TXEE,\".toSlice());\n    s = s.toSlice().concat(txee_id.toSlice());\n    s = s.toSlice().concat(\",Result,\".toSlice());\n    s = s.toSlice().concat(\"ALLOWED,new,\".toSlice());\n    s = s.toSlice().concat(state_stg.toSlice());\n    SetPackageStateEvent(s);\n  }\n\n  function GetPackageStates(bytes32 _state_category, bytes32 _txee_id){\n    var state_category = bytes32ToString(_state_category);\n    var txee_id = bytes32ToString(_txee_id);\n    var s = state_category.toSlice().concat(\",\".toSlice());\n    for(uint i = 0; i < uint(packageStateList.length); i++){\n      s = s.toSlice().concat(bytes32ToString(packageStateList[uint256(i)]).toSlice());\n      s = s.toSlice().concat(\",\".toSlice());\n    }\n    s = s.toSlice().concat(\"TXEE,\".toSlice());\n    s = s.toSlice().concat(txee_id.toSlice());\n    s = s.toSlice().concat(\",Result,\".toSlice());\n    s = s.toSlice().concat(\"ALLOWED\".toSlice());\n    GetPackageStatesEvent(s);\n  }\n\n  function updateUser(bytes32 _unique_id, bytes32 _create_op, bytes32 _asset_type, bytes32 _txee_id){\n    string memory id = bytes32ToString(_unique_id);\n    var create_op = bytes32ToString(_create_op);\n    var asset_type = bytes32ToString(_asset_type);\n    var txee_id = bytes32ToString(_txee_id);\n\n    var s = create_op.toSlice().concat(\",ID,\".toSlice());\n    s = s.toSlice().concat(id.toSlice());\n    s = s.toSlice().concat(\",\".toSlice());\n    s = s.toSlice().concat(asset_type.toSlice());\n    s = s.toSlice().concat(\",TXEE,\".toSlice());\n    s = s.toSlice().concat(txee_id.toSlice());\n    s = s.toSlice().concat(\",Result,\".toSlice());\n    s = s.toSlice().concat(\"ALLOWED\".toSlice());\n    UpdateUserEvent(s);\n  }\n}\n",
  "sourcePath": "/home/smartin/hack_2018/proto/contracts/MITSContract.sol",
  "compiler": {
    "name": "solc",
    "version": "0.4.18+commit.9cf6e910.Emscripten.clang"
  },
  "schemaVersion": "1.0.1",
  "updatedAt": "2018-02-16T00:42:47.555Z"
}