{
  "contractName": "MITSContract",
  "abi": [
    {
      "constant": true,
      "inputs": [
        {
          "name": "",
          "type": "uint256"
        },
        {
          "name": "_create_op",
          "type": "bytes32"
        },
        {
          "name": "_asset_type",
          "type": "bytes32"
        },
        {
          "name": "_txee_id",
          "type": "bytes32"
        }
      ],
      "name": "packageStateList",
      "outputs": [
        {
          "name": "",
          "type": "bytes32"
        }
      ],
      "payable": false,
      "stateMutability": "view",
      "type": "function"
    },
    {
      "constant": false,
      "inputs": [
        {
          "name": "_unique_id",
          "type": "bytes32"
        },
        {
          "name": "_create_op",
          "type": "bytes32"
        },
        {
          "name": "_asset_type",
          "type": "bytes32"
        },
        {
          "name": "_txee_id",
          "type": "bytes32"
        }
      ],
      "name": "addPlantAsset",
      "outputs": [],
      "payable": false,
      "stateMutability": "nonpayable",
      "type": "function"
    },
    {
      "constant": false,
      "inputs": [
        {
          "name": "_state_category",
          "type": "bytes32"
        },
        {
          "name": "_current_state",
          "type": "int256"
        },
        {
          "name": "_new_state",
          "type": "int256"
        },
        {
          "name": "_txee_id",
          "type": "bytes32"
        }
      ],
      "name": "setPackageState",
      "outputs": [
        {
          "name": "",
          "type": "string"
        }
      ],
      "payable": false,
      "stateMutability": "nonpayable",
      "type": "function"
    },
    {
      "constant": false,
      "inputs": [
        {
          "name": "_state_category",
          "type": "bytes32"
        },
        {
          "name": "_txee_id",
          "type": "bytes32"
        }
      ],
      "name": "GetPlantStates",
      "outputs": [
        {
          "name": "",
          "type": "string"
        }
      ],
      "payable": false,
      "stateMutability": "nonpayable",
      "type": "function"
    },
    {
      "inputs": [
        {
          "name": "_unique_id",
          "type": "bytes32"
        },
        {
          "name": "_create_op",
          "type": "bytes32"
        },
        {
          "name": "_asset_type",
          "type": "bytes32"
        },
        {
          "name": "_txee_id",
          "type": "bytes32"
        }
      ],
      "payable": false,
      "stateMutability": "nonpayable",
      "type": "function",
      "constant": false,
      "name": "AYT",
      "outputs": [
        {
          "name": "ret",
          "type": "bytes32"
        }
      ]
    },
    {
      "anonymous": false,
      "inputs": [
        {
          "indexed": false,
          "name": "_unique_id",
          "type": "bytes32"
        },
        {
          "name": "_create_op",
          "type": "bytes32"
        },
        {
          "name": "_asset_type",
          "type": "bytes32"
        },
        {
          "name": "_txee_id",
          "type": "bytes32"
        }
      ],
      "name": "addPackageAsset",
      "type": "function",
      "payable": false,
      "stateMutability": "nonpayable",
      "constant": false,
      "outputs": []
    },
    {
      "anonymous": false,
      "inputs": [
        {
          "indexed": false,
          "name": "_state_category",
          "type": "bytes32"
        },
        {
          "name": "_current_state",
          "type": "int256"
        },
        {
          "name": "_new_state",
          "type": "int256"
        },
        {
          "name": "_txee_id",
          "type": "bytes32"
        }
      ],
      "name": "setPlantState",
      "type": "function",
      "constant": false,
      "outputs": [
        {
          "name": "",
          "type": "bytes32"
        }
      ],
      "payable": false,
      "stateMutability": "nonpayable"
    },
    {
      "anonymous": false,
      "inputs": [
        {
          "indexed": false,
          "name": "",
          "type": "uint256"
        }
      ],
      "name": "plantStateList",
      "type": "function",
      "constant": true,
      "outputs": [
        {
          "name": "",
          "type": "bytes32"
        }
      ],
      "payable": false,
      "stateMutability": "view"
    },
    {
      "anonymous": false,
      "inputs": [
        {
          "indexed": false,
          "name": "_state_category",
          "type": "bytes32"
        },
        {
          "name": "_txee_id",
          "type": "bytes32"
        }
      ],
      "name": "GetPackageStates",
      "type": "function",
      "constant": false,
      "outputs": [
        {
          "name": "",
          "type": "string"
        }
      ],
      "payable": false,
      "stateMutability": "nonpayable"
    },
    {
      "anonymous": false,
      "inputs": [
        {
          "indexed": false,
          "name": "x",
          "type": "bytes32"
        },
        {
          "name": "packageStateNames",
          "type": "bytes32[]"
        }
      ],
      "name": "bytes32ToString",
      "type": "function",
      "payable": false,
      "stateMutability": "view",
      "constant": true,
      "outputs": [
        {
          "name": "",
          "type": "string"
        }
      ]
    },
    {
      "anonymous": false,
      "inputs": [
        {
          "indexed": false,
          "name": "v",
          "type": "uint256"
        },
        {
          "name": "packageStateNames",
          "type": "bytes32[]"
        }
      ],
      "name": "uintToBytes",
      "type": "function",
      "payable": false,
      "stateMutability": "view",
      "constant": true,
      "outputs": [
        {
          "name": "ret",
          "type": "bytes32"
        }
      ]
    },
    {
      "anonymous": false,
      "inputs": [
        {
          "indexed": false,
          "name": "plantStateNames",
          "type": "bytes32[]"
        },
        {
          "name": "packageStateNames",
          "type": "bytes32[]"
        }
      ],
      "name": "AddPlantAssetEvent",
      "type": "constructor",
      "payable": false,
      "stateMutability": "nonpayable"
    },
    {
      "anonymous": false,
      "inputs": [
        {
          "indexed": false,
          "name": "assetInfo",
          "type": "string"
        }
      ],
      "name": "AddPlantAssetEvent",
      "type": "event"
    },
    {
      "anonymous": false,
      "inputs": [
        {
          "indexed": false,
          "name": "assetInfo",
          "type": "string"
        }
      ],
      "name": "SetPlantStateEvent",
      "type": "event"
    },
    {
      "anonymous": false,
      "inputs": [
        {
          "indexed": false,
          "name": "assetInfo",
          "type": "string"
        }
      ],
      "name": "GetPlantStatesEvent",
      "type": "event"
    },
    {
      "anonymous": false,
      "inputs": [
        {
          "indexed": false,
          "name": "assetInfo",
          "type": "string"
        }
      ],
      "name": "AddPackageAssetEvent",
      "type": "event"
    },
    {
      "anonymous": false,
      "inputs": [
        {
          "indexed": false,
          "name": "assetInfo",
          "type": "string"
        }
      ],
      "name": "SetPackageStateEvent",
      "type": "event"
    },
    {
      "anonymous": false,
      "inputs": [
        {
          "indexed": false,
          "name": "assetInfo",
          "type": "string"
        }
      ],
      "name": "GetPackageStatesEvent",
      "type": "event"
    },
    {
      "anonymous": false,
      "inputs": [
        {
          "indexed": false,
          "name": "s",
          "type": "string"
        }
      ],
      "name": "TestOutputStringEvent",
      "type": "event"
    },
    {
      "anonymous": false,
      "inputs": [
        {
          "indexed": false,
          "name": "x",
          "type": "bytes32"
        }
      ],
      "name": "TestOutputBytes32Event",
      "type": "event"
    },
    {
      "anonymous": false,
      "inputs": [
        {
          "indexed": false,
          "name": "x",
          "type": "int256"
        }
      ],
      "name": "TestOutputIntEvent",
      "type": "event"
    }
  ],
  "bytecode": "0x60606040526000600155600060035534156200001a57600080fd5b60405162001f1438038062001f14833981016040528080518201919060200180518201919050508160009080519060200190620000599291906200008b565b50600060018190555080600290805190602001906200007a9291906200008b565b50600060038190555050506200010b565b828054828255906000526020600020908101928215620000d0579160200282015b82811115620000cf578251829060001916905591602001919060010190620000ac565b5b509050620000df9190620000e3565b5090565b6200010891905b8082111562000104576000816000905550600101620000ea565b5090565b90565b611df9806200011b6000396000f3006060604052600436106100af576000357c0100000000000000000000000000000000000000000000000000000000900463ffffffff16806301504a9d146100b457806322454730146100f35780632297f24114610141578063249a57de14610187578063287aa44c146101bb578063429f0069146101d0578063519eb7631461021e578063675f94cd1461026457806369144147146102a35780639201de55146102d757806394e8767d14610377575b600080fd5b34156100bf57600080fd5b6100d560048080359060200190919050506103b6565b60405180826000191660001916815260200191505060405180910390f35b34156100fe57600080fd5b61013f6004808035600019169060200190919080356000191690602001909190803560001916906020019091908035600019169060200190919050506103da565b005b341561014c57600080fd5b61018560048080356000191690602001909190803590602001909190803590602001909190803560001916906020019091905050610706565b005b341561019257600080fd5b6101b960048080356000191690602001909190803560001916906020019091905050610b1e565b005b34156101c657600080fd5b6101ce610e3f565b005b34156101db57600080fd5b61021c600480803560001916906020019091908035600019169060200190919080356000191690602001909190803560001916906020019091905050610f75565b005b341561022957600080fd5b610262600480803560001916906020019091908035906020019091908035906020019091908035600019169060200190919050506112a1565b005b341561026f57600080fd5b61028560048080359060200190919050506116b9565b60405180826000191660001916815260200191505060405180910390f35b34156102ae57600080fd5b6102d5600480803560001916906020019091908035600019169060200190919050506116dd565b005b34156102e257600080fd5b6102fc6004808035600019169060200190919050506119fe565b6040518080602001828103825283818151815260200191508051906020019080838360005b8381101561033c578082015181840152602081019050610321565b50505050905090810190601f1680156103695780820380516001836020036101000a031916815260200191505b509250505060405180910390f35b341561038257600080fd5b6103986004808035906020019091905050611beb565b60405180826000191660001916815260200191505060405180910390f35b6002818154811015156103c557fe5b90600052602060002090016000915090505481565b6103e2611d8b565b6103ea611d8b565b6103f2611d8b565b6103fa611d8b565b610402611d8b565b61040b896119fe565b9450610416886119fe565b9350610421876119fe565b925061042c866119fe565b915061048661046f6040805190810160405280600481526020017f2c49442c00000000000000000000000000000000000000000000000000000000815250611c94565b61047886611c94565b611cc290919063ffffffff16565b90506104ab61049486611c94565b61049d83611c94565b611cc290919063ffffffff16565b90506105056104ee6040805190810160405280600181526020017f2c00000000000000000000000000000000000000000000000000000000000000815250611c94565b6104f783611c94565b611cc290919063ffffffff16565b905061052a61051384611c94565b61051c83611c94565b611cc290919063ffffffff16565b905061058461056d6040805190810160405280600681526020017f2c545845452c0000000000000000000000000000000000000000000000000000815250611c94565b61057683611c94565b611cc290919063ffffffff16565b90506105a961059283611c94565b61059b83611c94565b611cc290919063ffffffff16565b90506106036105ec6040805190810160405280600881526020017f2c526573756c742c000000000000000000000000000000000000000000000000815250611c94565b6105f583611c94565b611cc290919063ffffffff16565b905061065d6106466040805190810160405280600781526020017f414c4c4f57454400000000000000000000000000000000000000000000000000815250611c94565b61064f83611c94565b611cc290919063ffffffff16565b90507fe6c53dfe85aef47716d85beb4761f362dc6774be0196d931d9467a553fc94552816040518080602001828103825283818151815260200191508051906020019080838360005b838110156106c15780820151818401526020810190506106a6565b50505050905090810190601f1680156106ee5780820380516001836020036101000a031916815260200191505b509250505060405180910390a1505050505050505050565b61070e611d8b565b610716611d8b565b61071e611d8b565b610726611d8b565b6000610730611d8b565b610738611d8b565b7fd0a263cd95976195bad2baaeb1898252900f7b0e8faae8c2d215aedb3f7e428a6040518080602001828103825260118152602001807f546f7020736574506c616e74537461746500000000000000000000000000000081525060200191505060405180910390a16107a98b6119fe565b96506107ce60028a8154811015156107bd57fe5b9060005260206000209001546119fe565b95506107f360028b8154811015156107e257fe5b9060005260206000209001546119fe565b94506107fe886119fe565b935088600381905550610812600354611beb565b925061081d836119fe565b91506108776108606040805190810160405280600981526020017f2c63757272656e742c0000000000000000000000000000000000000000000000815250611c94565b61086989611c94565b611cc290919063ffffffff16565b905061089c61088586611c94565b61088e83611c94565b611cc290919063ffffffff16565b90506108f66108df6040805190810160405280600681526020017f2c6e6578742c0000000000000000000000000000000000000000000000000000815250611c94565b6108e883611c94565b611cc290919063ffffffff16565b905061091b61090487611c94565b61090d83611c94565b611cc290919063ffffffff16565b905061097561095e6040805190810160405280600681526020017f2c545845452c0000000000000000000000000000000000000000000000000000815250611c94565b61096783611c94565b611cc290919063ffffffff16565b905061099a61098385611c94565b61098c83611c94565b611cc290919063ffffffff16565b90506109f46109dd6040805190810160405280600881526020017f2c526573756c742c000000000000000000000000000000000000000000000000815250611c94565b6109e683611c94565b611cc290919063ffffffff16565b9050610a4e610a376040805190810160405280600c81526020017f414c4c4f5745442c6e65772c0000000000000000000000000000000000000000815250611c94565b610a4083611c94565b611cc290919063ffffffff16565b9050610a73610a5c83611c94565b610a6583611c94565b611cc290919063ffffffff16565b90507ffe9062e820eff8a7630952bf56db24af3943b7beb14c22603af8697b7e6e8993816040518080602001828103825283818151815260200191508051906020019080838360005b83811015610ad7578082015181840152602081019050610abc565b50505050905090810190601f168015610b045780820380516001836020036101000a031916815260200191505b509250505060405180910390a15050505050505050505050565b610b26611d8b565b610b2e611d8b565b610b36611d8b565b6000610b41866119fe565b9350610b4c856119fe565b9250610ba6610b8f6040805190810160405280600181526020017f2c00000000000000000000000000000000000000000000000000000000000000815250611c94565b610b9886611c94565b611cc290919063ffffffff16565b9150600090505b600080549050811015610c6857610bff610be8610be3600084815481101515610bd257fe5b9060005260206000209001546119fe565b611c94565b610bf184611c94565b611cc290919063ffffffff16565b9150610c59610c426040805190810160405280600181526020017f2c00000000000000000000000000000000000000000000000000000000000000815250611c94565b610c4b84611c94565b611cc290919063ffffffff16565b91508080600101915050610bad565b610cc0610ca96040805190810160405280600581526020017f545845452c000000000000000000000000000000000000000000000000000000815250611c94565b610cb284611c94565b611cc290919063ffffffff16565b9150610ce5610cce84611c94565b610cd784611c94565b611cc290919063ffffffff16565b9150610d3f610d286040805190810160405280600881526020017f2c526573756c742c000000000000000000000000000000000000000000000000815250611c94565b610d3184611c94565b611cc290919063ffffffff16565b9150610d99610d826040805190810160405280600781526020017f414c4c4f57454400000000000000000000000000000000000000000000000000815250611c94565b610d8b84611c94565b611cc290919063ffffffff16565b91507fdf7150a95c9c3bdf89b61a115e1eb404a1550cade0b6cd5a006ddb0805a8cef4826040518080602001828103825283818151815260200191508051906020019080838360005b83811015610dfd578082015181840152602081019050610de2565b50505050905090810190601f168015610e2a5780820380516001836020036101000a031916815260200191505b509250505060405180910390a1505050505050565b610e47611d8b565b610ed4610e886040805190810160405280600981526020017f2c4d495453205949410000000000000000000000000000000000000000000000815250611c94565b610ec66040805190810160405280600381526020017f4159540000000000000000000000000000000000000000000000000000000000815250611c94565b611cc290919063ffffffff16565b90507fd0a263cd95976195bad2baaeb1898252900f7b0e8faae8c2d215aedb3f7e428a816040518080602001828103825283818151815260200191508051906020019080838360005b83811015610f38578082015181840152602081019050610f1d565b50505050905090810190601f168015610f655780820380516001836020036101000a031916815260200191505b509250505060405180910390a150565b610f7d611d8b565b610f85611d8b565b610f8d611d8b565b610f95611d8b565b610f9d611d8b565b610fa6896119fe565b9450610fb1886119fe565b9350610fbc876119fe565b9250610fc7866119fe565b915061102161100a6040805190810160405280600481526020017f2c49442c00000000000000000000000000000000000000000000000000000000815250611c94565b61101386611c94565b611cc290919063ffffffff16565b905061104661102f86611c94565b61103883611c94565b611cc290919063ffffffff16565b90506110a06110896040805190810160405280600181526020017f2c00000000000000000000000000000000000000000000000000000000000000815250611c94565b61109283611c94565b611cc290919063ffffffff16565b90506110c56110ae84611c94565b6110b783611c94565b611cc290919063ffffffff16565b905061111f6111086040805190810160405280600681526020017f2c545845452c0000000000000000000000000000000000000000000000000000815250611c94565b61111183611c94565b611cc290919063ffffffff16565b905061114461112d83611c94565b61113683611c94565b611cc290919063ffffffff16565b905061119e6111876040805190810160405280600881526020017f2c526573756c742c000000000000000000000000000000000000000000000000815250611c94565b61119083611c94565b611cc290919063ffffffff16565b90506111f86111e16040805190810160405280600781526020017f414c4c4f57454400000000000000000000000000000000000000000000000000815250611c94565b6111ea83611c94565b611cc290919063ffffffff16565b90507f35ffa5fa01df33691785447b99dae5bf4f3c197c3081718bdb96b6b2bc70ae41816040518080602001828103825283818151815260200191508051906020019080838360005b8381101561125c578082015181840152602081019050611241565b50505050905090810190601f1680156112895780820380516001836020036101000a031916815260200191505b509250505060405180910390a1505050505050505050565b6112a9611d8b565b6112b1611d8b565b6112b9611d8b565b6112c1611d8b565b60006112cb611d8b565b6112d3611d8b565b7fd0a263cd95976195bad2baaeb1898252900f7b0e8faae8c2d215aedb3f7e428a6040518080602001828103825260118152602001807f546f7020736574506c616e74537461746500000000000000000000000000000081525060200191505060405180910390a16113448b6119fe565b965061136960008a81548110151561135857fe5b9060005260206000209001546119fe565b955061138e60008b81548110151561137d57fe5b9060005260206000209001546119fe565b9450611399886119fe565b9350886001819055506113ad600154611beb565b92506113b8836119fe565b91506114126113fb6040805190810160405280600981526020017f2c63757272656e742c0000000000000000000000000000000000000000000000815250611c94565b61140489611c94565b611cc290919063ffffffff16565b905061143761142086611c94565b61142983611c94565b611cc290919063ffffffff16565b905061149161147a6040805190810160405280600681526020017f2c6e6578742c0000000000000000000000000000000000000000000000000000815250611c94565b61148383611c94565b611cc290919063ffffffff16565b90506114b661149f87611c94565b6114a883611c94565b611cc290919063ffffffff16565b90506115106114f96040805190810160405280600681526020017f2c545845452c0000000000000000000000000000000000000000000000000000815250611c94565b61150283611c94565b611cc290919063ffffffff16565b905061153561151e85611c94565b61152783611c94565b611cc290919063ffffffff16565b905061158f6115786040805190810160405280600881526020017f2c526573756c742c000000000000000000000000000000000000000000000000815250611c94565b61158183611c94565b611cc290919063ffffffff16565b90506115e96115d26040805190810160405280600c81526020017f414c4c4f5745442c6e65772c0000000000000000000000000000000000000000815250611c94565b6115db83611c94565b611cc290919063ffffffff16565b905061160e6115f783611c94565b61160083611c94565b611cc290919063ffffffff16565b90507f366514b314adbd130b4541a8f3b2df5d5dc545733f1ed56e49114df383a943d0816040518080602001828103825283818151815260200191508051906020019080838360005b83811015611672578082015181840152602081019050611657565b50505050905090810190601f16801561169f5780820380516001836020036101000a031916815260200191505b509250505060405180910390a15050505050505050505050565b6000818154811015156116c857fe5b90600052602060002090016000915090505481565b6116e5611d8b565b6116ed611d8b565b6116f5611d8b565b6000611700866119fe565b935061170b856119fe565b925061176561174e6040805190810160405280600181526020017f2c00000000000000000000000000000000000000000000000000000000000000815250611c94565b61175786611c94565b611cc290919063ffffffff16565b9150600090505b600280549050811015611827576117be6117a76117a260028481548110151561179157fe5b9060005260206000209001546119fe565b611c94565b6117b084611c94565b611cc290919063ffffffff16565b91506118186118016040805190810160405280600181526020017f2c00000000000000000000000000000000000000000000000000000000000000815250611c94565b61180a84611c94565b611cc290919063ffffffff16565b9150808060010191505061176c565b61187f6118686040805190810160405280600581526020017f545845452c000000000000000000000000000000000000000000000000000000815250611c94565b61187184611c94565b611cc290919063ffffffff16565b91506118a461188d84611c94565b61189684611c94565b611cc290919063ffffffff16565b91506118fe6118e76040805190810160405280600881526020017f2c526573756c742c000000000000000000000000000000000000000000000000815250611c94565b6118f084611c94565b611cc290919063ffffffff16565b91506119586119416040805190810160405280600781526020017f414c4c4f57454400000000000000000000000000000000000000000000000000815250611c94565b61194a84611c94565b611cc290919063ffffffff16565b91507fe91c1a47ea6d41851d213cdc310f816449e3c27c7e566f7aaba0eccbbca1225f826040518080602001828103825283818151815260200191508051906020019080838360005b838110156119bc5780820151818401526020810190506119a1565b50505050905090810190601f1680156119e95780820380516001836020036101000a031916815260200191505b509250505060405180910390a1505050505050565b611a06611d8b565b611a0e611d9f565b6000806000611a1b611d9f565b6020604051805910611a2a5750595b9080825280601f01601f1916602001820160405250945060009350600092505b6020831015611b08578260080260020a876001900402600102915060007f010000000000000000000000000000000000000000000000000000000000000002827effffffffffffffffffffffffffffffffffffffffffffffffffffffffffffff1916141515611afb57818585815181101515611ac257fe5b9060200101907effffffffffffffffffffffffffffffffffffffffffffffffffffffffffffff1916908160001a90535083806001019450505b8280600101935050611a4a565b83604051805910611b165750595b9080825280601f01601f19166020018201604052509050600092505b83831015611bde578483815181101515611b4857fe5b9060200101517f010000000000000000000000000000000000000000000000000000000000000090047f0100000000000000000000000000000000000000000000000000000000000000028184815181101515611ba157fe5b9060200101907effffffffffffffffffffffffffffffffffffffffffffffffffffffffffffff1916908160001a9053508280600101935050611b32565b8095505050505050919050565b600080821415611c1d577f30000000000000000000000000000000000000000000000000000000000000009050611c8c565b5b6000821115611c8b576101008160019004811515611c3857fe5b0460010290507f01000000000000000000000000000000000000000000000000000000000000006030600a84811515611c6d57fe5b06010260010281179050600a82811515611c8357fe5b049150611c1e565b5b809050919050565b611c9c611db3565b600060208301905060408051908101604052808451815260200182815250915050919050565b611cca611d8b565b611cd2611d8b565b60008360000151856000015101604051805910611cec5750595b9080825280601f01601f19166020018201604052509150602082019050611d1c8186602001518760000151611d40565b611d358560000151820185602001518660000151611d40565b819250505092915050565b60005b602082101515611d685782518452602084019350602083019250602082039150611d43565b6001826020036101000a0390508019835116818551168181178652505050505050565b602060405190810160405280600081525090565b602060405190810160405280600081525090565b6040805190810160405280600081526020016000815250905600a165627a7a723058201240833d6a4edc3527f4426f370d350308b0d7cac4789e51e11c66f13730d54d0029",
  "source": "pragma solidity ^0.4.11;\n// We have to specify what version of compiler this code will compile with\n\nimport \"./strings.sol\";\n\ncontract MITSContract {\n\n  using strings for *;\n\n  event AddPlantAssetEvent(\n    string assetInfo\n  );\n  event SetPlantStateEvent(\n    string assetInfo\n  );\n  event GetPlantStatesEvent(\n    string assetInfo\n  );\n\n  event AddPackageAssetEvent(\n    string assetInfo\n  );\n  event SetPackageStateEvent(\n    string assetInfo\n  );\n  event GetPackageStatesEvent(\n    string assetInfo\n  );\n\n  //  debugging events\n  event TestOutputStringEvent(\n    string s\n  );\n  event TestOutputBytes32Event(\n    bytes32 x\n  );\n  event TestOutputIntEvent(\n    int x\n  );\n\n\n  bytes32[] public plantStateList;\n  uint256 plantStateIndex = 0;\n\n  bytes32[] public packageStateList;\n  uint256 packageStateIndex = 0;\n\n  function MITSContract(bytes32[] plantStateNames, bytes32[] packageStateNames) {\n      plantStateList = plantStateNames;\n      plantStateIndex = 0;\n      packageStateList = packageStateNames;\n      packageStateIndex = 0;\n  }\n\n  // Utility functions\n  //https://ethereum.stackexchange.com/questions/29295/how-to-convert-a-bytes-to-string-in-solidity\n  function bytes32ToString(bytes32 x) constant returns (string) {\n    //TestOutputBytes32Event(x);\n    bytes memory bytesString = new bytes(32);\n    uint charCount = 0;\n    for (uint j = 0; j < 32; j++) {\n        byte char = byte(bytes32(uint(x) * 2 ** (8 * j)));\n        if (char != 0) {\n            bytesString[charCount] = char;\n            charCount++;\n        }\n    }\n    bytes memory bytesStringTrimmed = new bytes(charCount);\n    for (j = 0; j < charCount; j++) {\n        bytesStringTrimmed[j] = bytesString[j];\n    }\n    return string(bytesStringTrimmed);\n  }\n\n  //https://ethereum.stackexchange.com/questions/6591/conversion-of-uint-to-string\n  function uintToBytes(uint v) constant returns (bytes32 ret) {\n    if (v == 0) {\n        ret = '0';\n    }\n    else {\n        while (v > 0) {\n            ret = bytes32(uint(ret) / (2 ** 8));\n            ret |= bytes32(((v % 10) + 48) * 2 ** (8 * 31));\n            v /= 10;\n        }\n    }\n    return ret;\n  }\n\n  function AYT(){\n    var s = \"AYT\".toSlice().concat(\",MITS YIA\".toSlice());\n    TestOutputStringEvent(s);\n  }\n\n  function addPlantAsset(bytes32 _unique_id, bytes32 _create_op, bytes32 _asset_type, bytes32 _txee_id){\n    string memory id = bytes32ToString(_unique_id);\n    var create_op = bytes32ToString(_create_op);\n    var asset_type = bytes32ToString(_asset_type);\n    var txee_id = bytes32ToString(_txee_id);\n\n    var s = create_op.toSlice().concat(\",ID,\".toSlice());\n    s = s.toSlice().concat(id.toSlice());\n    s = s.toSlice().concat(\",\".toSlice());\n    s = s.toSlice().concat(asset_type.toSlice());\n    s = s.toSlice().concat(\",TXEE,\".toSlice());\n    s = s.toSlice().concat(txee_id.toSlice());\n    s = s.toSlice().concat(\",Result,\".toSlice());\n    s = s.toSlice().concat(\"ALLOWED\".toSlice());\n    AddPlantAssetEvent(s);\n  }\n\n  // set alowed with no regard to \"smart contract\"\n  function setPlantState(bytes32 _state_category, int _current_state, int _new_state, bytes32 _txee_id){\n    TestOutputStringEvent(\"Top setPlantState\");\n    var state_category = bytes32ToString(_state_category);\n    var new_state = bytes32ToString(plantStateList[uint256(_new_state)]);\n    var current_state = bytes32ToString(plantStateList[uint256(_current_state)]);\n    var txee_id = bytes32ToString(_txee_id);\n\n    //TestOutputIntEvent(int(systemStateIndex));\n    plantStateIndex = uint256(_new_state);\n    //TestOutputIntEvent(int(systemStateIndex));\n    var stg_val = uintToBytes(uint(plantStateIndex));\n    var state_stg = bytes32ToString(stg_val);\n\n    var s = state_category.toSlice().concat(\",current,\".toSlice());\n    s = s.toSlice().concat(current_state.toSlice());\n    s = s.toSlice().concat(\",next,\".toSlice());\n    s = s.toSlice().concat(new_state.toSlice());\n    s = s.toSlice().concat(\",TXEE,\".toSlice());\n    s = s.toSlice().concat(txee_id.toSlice());\n    s = s.toSlice().concat(\",Result,\".toSlice());\n    s = s.toSlice().concat(\"ALLOWED,new,\".toSlice());\n    s = s.toSlice().concat(state_stg.toSlice());\n    SetPlantStateEvent(s);\n  }\n\n  function GetPlantStates(bytes32 _state_category, bytes32 _txee_id){\n    var state_category = bytes32ToString(_state_category);\n    var txee_id = bytes32ToString(_txee_id);\n    var s = state_category.toSlice().concat(\",\".toSlice());\n    for(uint i = 0; i < uint(plantStateList.length); i++){\n      s = s.toSlice().concat(bytes32ToString(plantStateList[uint256(i)]).toSlice());\n      s = s.toSlice().concat(\",\".toSlice());\n    }\n    s = s.toSlice().concat(\"TXEE,\".toSlice());\n    s = s.toSlice().concat(txee_id.toSlice());\n    s = s.toSlice().concat(\",Result,\".toSlice());\n    s = s.toSlice().concat(\"ALLOWED\".toSlice());\n    GetPlantStatesEvent(s);\n  }\n\n  function addPackageAsset(bytes32 _unique_id, bytes32 _create_op, bytes32 _asset_type, bytes32 _txee_id){\n    string memory id = bytes32ToString(_unique_id);\n    var create_op = bytes32ToString(_create_op);\n    var asset_type = bytes32ToString(_asset_type);\n    var txee_id = bytes32ToString(_txee_id);\n\n    var s = create_op.toSlice().concat(\",ID,\".toSlice());\n    s = s.toSlice().concat(id.toSlice());\n    s = s.toSlice().concat(\",\".toSlice());\n    s = s.toSlice().concat(asset_type.toSlice());\n    s = s.toSlice().concat(\",TXEE,\".toSlice());\n    s = s.toSlice().concat(txee_id.toSlice());\n    s = s.toSlice().concat(\",Result,\".toSlice());\n    s = s.toSlice().concat(\"ALLOWED\".toSlice());\n    AddPackageAssetEvent(s);\n  }\n  // set alowed with no regard to \"smart contract\"\n  function setPackageState(bytes32 _state_category, int _current_state, int _new_state, bytes32 _txee_id){\n    TestOutputStringEvent(\"Top setPlantState\");\n    var state_category = bytes32ToString(_state_category);\n    var new_state = bytes32ToString(packageStateList[uint256(_new_state)]);\n    var current_state = bytes32ToString(packageStateList[uint256(_current_state)]);\n    var txee_id = bytes32ToString(_txee_id);\n\n    //TestOutputIntEvent(int(systemStateIndex));\n    packageStateIndex = uint256(_new_state);\n    //TestOutputIntEvent(int(systemStateIndex));\n    var stg_val = uintToBytes(uint(packageStateIndex));\n    var state_stg = bytes32ToString(stg_val);\n\n    var s = state_category.toSlice().concat(\",current,\".toSlice());\n    s = s.toSlice().concat(current_state.toSlice());\n    s = s.toSlice().concat(\",next,\".toSlice());\n    s = s.toSlice().concat(new_state.toSlice());\n    s = s.toSlice().concat(\",TXEE,\".toSlice());\n    s = s.toSlice().concat(txee_id.toSlice());\n    s = s.toSlice().concat(\",Result,\".toSlice());\n    s = s.toSlice().concat(\"ALLOWED,new,\".toSlice());\n    s = s.toSlice().concat(state_stg.toSlice());\n    SetPackageStateEvent(s);\n  }\n  function GetPackageStates(bytes32 _state_category, bytes32 _txee_id){\n    var state_category = bytes32ToString(_state_category);\n    var txee_id = bytes32ToString(_txee_id);\n    var s = state_category.toSlice().concat(\",\".toSlice());\n    for(uint i = 0; i < uint(packageStateList.length); i++){\n      s = s.toSlice().concat(bytes32ToString(packageStateList[uint256(i)]).toSlice());\n      s = s.toSlice().concat(\",\".toSlice());\n    }\n    s = s.toSlice().concat(\"TXEE,\".toSlice());\n    s = s.toSlice().concat(txee_id.toSlice());\n    s = s.toSlice().concat(\",Result,\".toSlice());\n    s = s.toSlice().concat(\"ALLOWED\".toSlice());\n    GetPackageStatesEvent(s);\n  }\n}\n",
  "sourcePath": "/home/smartin/hack_2018/proto/contracts/MITSContract.sol",
  "compiler": {
    "name": "solc",
    "version": "0.4.18+commit.9cf6e910.Emscripten.clang"
  },
  "schemaVersion": "1.0.1",
  "updatedAt": "2018-02-09T19:46:03.480Z"
}