{
  "contractName": "MITSContract",
  "abi": [
    {
      "constant": true,
      "inputs": [
        {
          "name": "",
          "type": "uint256"
        },
        {
          "name": "_create_op",
          "type": "bytes32"
        },
        {
          "name": "_asset_type",
          "type": "bytes32"
        },
        {
          "name": "_txee_id",
          "type": "bytes32"
        }
      ],
      "name": "packageStateList",
      "outputs": [
        {
          "name": "",
          "type": "bytes32"
        }
      ],
      "payable": false,
      "stateMutability": "view",
      "type": "function"
    },
    {
      "constant": false,
      "inputs": [
        {
          "name": "_unique_id",
          "type": "bytes32"
        },
        {
          "name": "_create_op",
          "type": "bytes32"
        },
        {
          "name": "_asset_type",
          "type": "bytes32"
        },
        {
          "name": "_txee_id",
          "type": "bytes32"
        }
      ],
      "name": "addPlantAsset",
      "outputs": [],
      "payable": false,
      "stateMutability": "nonpayable",
      "type": "function"
    },
    {
      "constant": false,
      "inputs": [
        {
          "name": "_state_category",
          "type": "bytes32"
        },
        {
          "name": "_txee_id",
          "type": "bytes32"
        },
        {
          "name": "_new_state",
          "type": "int256"
        },
        {
          "name": "_txee_id",
          "type": "bytes32"
        }
      ],
      "name": "GetPlantStates",
      "outputs": [
        {
          "name": "",
          "type": "string"
        }
      ],
      "payable": false,
      "stateMutability": "nonpayable",
      "type": "function"
    },
    {
      "constant": false,
      "inputs": [
        {
          "name": "_state_category",
          "type": "bytes32"
        },
        {
          "name": "_txee_id",
          "type": "bytes32"
        }
      ],
      "name": "AYT",
      "outputs": [
        {
          "name": "",
          "type": "string"
        }
      ],
      "payable": false,
      "stateMutability": "nonpayable",
      "type": "function"
    },
    {
      "inputs": [
        {
          "name": "_unique_id",
          "type": "bytes32"
        },
        {
          "name": "_create_op",
          "type": "bytes32"
        },
        {
          "name": "_asset_type",
          "type": "bytes32"
        },
        {
          "name": "_txee_id",
          "type": "bytes32"
        }
      ],
      "payable": false,
      "stateMutability": "nonpayable",
      "type": "function",
      "constant": false,
      "name": "addPackageAsset",
      "outputs": [
        {
          "name": "ret",
          "type": "bytes32"
        }
      ]
    },
    {
      "anonymous": false,
      "inputs": [
        {
          "indexed": false,
          "name": "_unique_id",
          "type": "bytes32"
        },
        {
          "name": "_state_category",
          "type": "bytes32"
        },
        {
          "name": "_current_state",
          "type": "int256"
        },
        {
          "name": "_new_state",
          "type": "int256"
        },
        {
          "name": "_txee_id",
          "type": "bytes32"
        }
      ],
      "name": "setPlantState",
      "type": "function",
      "payable": false,
      "stateMutability": "nonpayable",
      "constant": false,
      "outputs": []
    },
    {
      "anonymous": false,
      "inputs": [
        {
          "indexed": false,
          "name": "",
          "type": "uint256"
        },
        {
          "name": "_state_category",
          "type": "bytes32"
        },
        {
          "name": "_current_state",
          "type": "int256"
        },
        {
          "name": "_new_state",
          "type": "int256"
        },
        {
          "name": "_txee_id",
          "type": "bytes32"
        }
      ],
      "name": "plantStateList",
      "type": "function",
      "constant": true,
      "outputs": [
        {
          "name": "",
          "type": "bytes32"
        }
      ],
      "payable": false,
      "stateMutability": "view"
    },
    {
      "anonymous": false,
      "inputs": [
        {
          "indexed": false,
          "name": "_state_category",
          "type": "bytes32"
        },
        {
          "name": "_txee_id",
          "type": "bytes32"
        }
      ],
      "name": "GetPackageStates",
      "type": "function",
      "constant": false,
      "outputs": [
        {
          "name": "",
          "type": "bytes32"
        }
      ],
      "payable": false,
      "stateMutability": "nonpayable"
    },
    {
      "anonymous": false,
      "inputs": [
        {
          "indexed": false,
          "name": "x",
          "type": "bytes32"
        },
        {
          "name": "_txee_id",
          "type": "bytes32"
        }
      ],
      "name": "bytes32ToString",
      "type": "function",
      "constant": true,
      "outputs": [
        {
          "name": "",
          "type": "string"
        }
      ],
      "payable": false,
      "stateMutability": "view"
    },
    {
      "anonymous": false,
      "inputs": [
        {
          "indexed": false,
          "name": "_unique_id",
          "type": "bytes32"
        },
        {
          "name": "_state_category",
          "type": "bytes32"
        },
        {
          "name": "_current_state",
          "type": "int256"
        },
        {
          "name": "_new_state",
          "type": "int256"
        },
        {
          "name": "_txee_id",
          "type": "bytes32"
        }
      ],
      "name": "setPackageState",
      "type": "function",
      "payable": false,
      "stateMutability": "nonpayable",
      "constant": false,
      "outputs": [
        {
          "name": "",
          "type": "string"
        }
      ]
    },
    {
      "anonymous": false,
      "inputs": [
        {
          "indexed": false,
          "name": "v",
          "type": "uint256"
        },
        {
          "name": "packageStateNames",
          "type": "bytes32[]"
        }
      ],
      "name": "uintToBytes",
      "type": "function",
      "payable": false,
      "stateMutability": "view",
      "constant": true,
      "outputs": [
        {
          "name": "ret",
          "type": "bytes32"
        }
      ]
    },
    {
      "anonymous": false,
      "inputs": [
        {
          "indexed": false,
          "name": "plantStateNames",
          "type": "bytes32[]"
        },
        {
          "name": "packageStateNames",
          "type": "bytes32[]"
        }
      ],
      "name": "AddPlantAssetEvent",
      "type": "constructor",
      "payable": false,
      "stateMutability": "nonpayable"
    },
    {
      "anonymous": false,
      "inputs": [
        {
          "indexed": false,
          "name": "assetInfo",
          "type": "string"
        }
      ],
      "name": "AddPlantAssetEvent",
      "type": "event"
    },
    {
      "anonymous": false,
      "inputs": [
        {
          "indexed": false,
          "name": "assetInfo",
          "type": "string"
        }
      ],
      "name": "SetPlantStateEvent",
      "type": "event"
    },
    {
      "anonymous": false,
      "inputs": [
        {
          "indexed": false,
          "name": "assetInfo",
          "type": "string"
        }
      ],
      "name": "GetPlantStatesEvent",
      "type": "event"
    },
    {
      "anonymous": false,
      "inputs": [
        {
          "indexed": false,
          "name": "assetInfo",
          "type": "string"
        }
      ],
      "name": "AddPackageAssetEvent",
      "type": "event"
    },
    {
      "anonymous": false,
      "inputs": [
        {
          "indexed": false,
          "name": "assetInfo",
          "type": "string"
        }
      ],
      "name": "SetPackageStateEvent",
      "type": "event"
    },
    {
      "anonymous": false,
      "inputs": [
        {
          "indexed": false,
          "name": "assetInfo",
          "type": "string"
        }
      ],
      "name": "GetPackageStatesEvent",
      "type": "event"
    },
    {
      "anonymous": false,
      "inputs": [
        {
          "indexed": false,
          "name": "s",
          "type": "string"
        }
      ],
      "name": "TestOutputStringEvent",
      "type": "event"
    },
    {
      "anonymous": false,
      "inputs": [
        {
          "indexed": false,
          "name": "x",
          "type": "bytes32"
        }
      ],
      "name": "TestOutputBytes32Event",
      "type": "event"
    },
    {
      "anonymous": false,
      "inputs": [
        {
          "indexed": false,
          "name": "x",
          "type": "int256"
        }
      ],
      "name": "TestOutputIntEvent",
      "type": "event"
    },
    {
      "anonymous": false,
      "inputs": [
        {
          "indexed": false,
          "name": "ayt",
          "type": "string"
        }
      ],
      "name": "AYTEvent",
      "type": "event"
    }
  ],
  "bytecode": "0x60606040526000600155600060035534156200001a57600080fd5b6040516200205838038062002058833981016040528080518201919060200180518201919050508160009080519060200190620000599291906200008b565b50600060018190555080600290805190602001906200007a9291906200008b565b50600060038190555050506200010b565b828054828255906000526020600020908101928215620000d0579160200282015b82811115620000cf578251829060001916905591602001919060010190620000ac565b5b509050620000df9190620000e3565b5090565b6200010891905b8082111562000104576000816000905550600101620000ea565b5090565b90565b611f3d806200011b6000396000f3006060604052600436106100af576000357c0100000000000000000000000000000000000000000000000000000000900463ffffffff16806301504a9d146100b457806322454730146100f3578063249a57de14610141578063287aa44c14610175578063429f00691461018a57806360b9295c146101d8578063675f94cd1461022b578063691441471461026a5780639201de551461029e57806392b9c9841461033e57806394e8767d14610391575b600080fd5b34156100bf57600080fd5b6100d560048080359060200190919050506103d0565b60405180826000191660001916815260200191505060405180910390f35b34156100fe57600080fd5b61013f6004808035600019169060200190919080356000191690602001909190803560001916906020019091908035600019169060200190919050506103f4565b005b341561014c57600080fd5b61017360048080356000191690602001909190803560001916906020019091905050610720565b005b341561018057600080fd5b610188610a41565b005b341561019557600080fd5b6101d6600480803560001916906020019091908035600019169060200190919080356000191690602001909190803560001916906020019091905050610b77565b005b34156101e357600080fd5b6102296004808035600019169060200190919080356000191690602001909190803590602001909190803590602001909190803560001916906020019091905050610ea3565b005b341561023657600080fd5b61024c600480803590602001909190505061134f565b60405180826000191660001916815260200191505060405180910390f35b341561027557600080fd5b61029c60048080356000191690602001909190803560001916906020019091905050611373565b005b34156102a957600080fd5b6102c3600480803560001916906020019091905050611694565b6040518080602001828103825283818151815260200191508051906020019080838360005b838110156103035780820151818401526020810190506102e8565b50505050905090810190601f1680156103305780820380516001836020036101000a031916815260200191505b509250505060405180910390f35b341561034957600080fd5b61038f6004808035600019169060200190919080356000191690602001909190803590602001909190803590602001909190803560001916906020019091905050611881565b005b341561039c57600080fd5b6103b26004808035906020019091905050611d2f565b60405180826000191660001916815260200191505060405180910390f35b6002818154811015156103df57fe5b90600052602060002090016000915090505481565b6103fc611ecf565b610404611ecf565b61040c611ecf565b610414611ecf565b61041c611ecf565b61042589611694565b945061043088611694565b935061043b87611694565b925061044686611694565b91506104a06104896040805190810160405280600481526020017f2c49442c00000000000000000000000000000000000000000000000000000000815250611dd8565b61049286611dd8565b611e0690919063ffffffff16565b90506104c56104ae86611dd8565b6104b783611dd8565b611e0690919063ffffffff16565b905061051f6105086040805190810160405280600181526020017f2c00000000000000000000000000000000000000000000000000000000000000815250611dd8565b61051183611dd8565b611e0690919063ffffffff16565b905061054461052d84611dd8565b61053683611dd8565b611e0690919063ffffffff16565b905061059e6105876040805190810160405280600681526020017f2c545845452c0000000000000000000000000000000000000000000000000000815250611dd8565b61059083611dd8565b611e0690919063ffffffff16565b90506105c36105ac83611dd8565b6105b583611dd8565b611e0690919063ffffffff16565b905061061d6106066040805190810160405280600881526020017f2c526573756c742c000000000000000000000000000000000000000000000000815250611dd8565b61060f83611dd8565b611e0690919063ffffffff16565b90506106776106606040805190810160405280600781526020017f414c4c4f57454400000000000000000000000000000000000000000000000000815250611dd8565b61066983611dd8565b611e0690919063ffffffff16565b90507fe6c53dfe85aef47716d85beb4761f362dc6774be0196d931d9467a553fc94552816040518080602001828103825283818151815260200191508051906020019080838360005b838110156106db5780820151818401526020810190506106c0565b50505050905090810190601f1680156107085780820380516001836020036101000a031916815260200191505b509250505060405180910390a1505050505050505050565b610728611ecf565b610730611ecf565b610738611ecf565b600061074386611694565b935061074e85611694565b92506107a86107916040805190810160405280600181526020017f2c00000000000000000000000000000000000000000000000000000000000000815250611dd8565b61079a86611dd8565b611e0690919063ffffffff16565b9150600090505b60008054905081101561086a576108016107ea6107e56000848154811015156107d457fe5b906000526020600020900154611694565b611dd8565b6107f384611dd8565b611e0690919063ffffffff16565b915061085b6108446040805190810160405280600181526020017f2c00000000000000000000000000000000000000000000000000000000000000815250611dd8565b61084d84611dd8565b611e0690919063ffffffff16565b915080806001019150506107af565b6108c26108ab6040805190810160405280600581526020017f545845452c000000000000000000000000000000000000000000000000000000815250611dd8565b6108b484611dd8565b611e0690919063ffffffff16565b91506108e76108d084611dd8565b6108d984611dd8565b611e0690919063ffffffff16565b915061094161092a6040805190810160405280600881526020017f2c526573756c742c000000000000000000000000000000000000000000000000815250611dd8565b61093384611dd8565b611e0690919063ffffffff16565b915061099b6109846040805190810160405280600781526020017f414c4c4f57454400000000000000000000000000000000000000000000000000815250611dd8565b61098d84611dd8565b611e0690919063ffffffff16565b91507fdf7150a95c9c3bdf89b61a115e1eb404a1550cade0b6cd5a006ddb0805a8cef4826040518080602001828103825283818151815260200191508051906020019080838360005b838110156109ff5780820151818401526020810190506109e4565b50505050905090810190601f168015610a2c5780820380516001836020036101000a031916815260200191505b509250505060405180910390a1505050505050565b610a49611ecf565b610ad6610a8a6040805190810160405280600981526020017f2c4d495453205949410000000000000000000000000000000000000000000000815250611dd8565b610ac86040805190810160405280600381526020017f4159540000000000000000000000000000000000000000000000000000000000815250611dd8565b611e0690919063ffffffff16565b90507ff1fead58f4b32e6212a982cd11f0ebf3726e465f2ab519f2ad61284882dfca41816040518080602001828103825283818151815260200191508051906020019080838360005b83811015610b3a578082015181840152602081019050610b1f565b50505050905090810190601f168015610b675780820380516001836020036101000a031916815260200191505b509250505060405180910390a150565b610b7f611ecf565b610b87611ecf565b610b8f611ecf565b610b97611ecf565b610b9f611ecf565b610ba889611694565b9450610bb388611694565b9350610bbe87611694565b9250610bc986611694565b9150610c23610c0c6040805190810160405280600481526020017f2c49442c00000000000000000000000000000000000000000000000000000000815250611dd8565b610c1586611dd8565b611e0690919063ffffffff16565b9050610c48610c3186611dd8565b610c3a83611dd8565b611e0690919063ffffffff16565b9050610ca2610c8b6040805190810160405280600181526020017f2c00000000000000000000000000000000000000000000000000000000000000815250611dd8565b610c9483611dd8565b611e0690919063ffffffff16565b9050610cc7610cb084611dd8565b610cb983611dd8565b611e0690919063ffffffff16565b9050610d21610d0a6040805190810160405280600681526020017f2c545845452c0000000000000000000000000000000000000000000000000000815250611dd8565b610d1383611dd8565b611e0690919063ffffffff16565b9050610d46610d2f83611dd8565b610d3883611dd8565b611e0690919063ffffffff16565b9050610da0610d896040805190810160405280600881526020017f2c526573756c742c000000000000000000000000000000000000000000000000815250611dd8565b610d9283611dd8565b611e0690919063ffffffff16565b9050610dfa610de36040805190810160405280600781526020017f414c4c4f57454400000000000000000000000000000000000000000000000000815250611dd8565b610dec83611dd8565b611e0690919063ffffffff16565b90507f35ffa5fa01df33691785447b99dae5bf4f3c197c3081718bdb96b6b2bc70ae41816040518080602001828103825283818151815260200191508051906020019080838360005b83811015610e5e578082015181840152602081019050610e43565b50505050905090810190601f168015610e8b5780820380516001836020036101000a031916815260200191505b509250505060405180910390a1505050505050505050565b610eab611ecf565b610eb3611ecf565b610ebb611ecf565b610ec3611ecf565b610ecb611ecf565b6000610ed5611ecf565b610edd611ecf565b7fd0a263cd95976195bad2baaeb1898252900f7b0e8faae8c2d215aedb3f7e428a6040518080602001828103825260118152602001807f546f7020736574506c616e74537461746500000000000000000000000000000081525060200191505060405180910390a1610f4e8d611694565b9750610f598c611694565b9650610f7e60008b815481101515610f6d57fe5b906000526020600020900154611694565b9550610fa360008c815481101515610f9257fe5b906000526020600020900154611694565b9450610fae89611694565b935089600181905550610fc2600154611d2f565b9250610fcd83611694565b91506110276110106040805190810160405280600481526020017f2c49442c00000000000000000000000000000000000000000000000000000000815250611dd8565b61101989611dd8565b611e0690919063ffffffff16565b905061104c61103589611dd8565b61103e83611dd8565b611e0690919063ffffffff16565b90506110a661108f6040805190810160405280600981526020017f2c63757272656e742c0000000000000000000000000000000000000000000000815250611dd8565b61109883611dd8565b611e0690919063ffffffff16565b90506110cb6110b486611dd8565b6110bd83611dd8565b611e0690919063ffffffff16565b905061112561110e6040805190810160405280600681526020017f2c6e6578742c0000000000000000000000000000000000000000000000000000815250611dd8565b61111783611dd8565b611e0690919063ffffffff16565b905061114a61113387611dd8565b61113c83611dd8565b611e0690919063ffffffff16565b90506111a461118d6040805190810160405280600681526020017f2c545845452c0000000000000000000000000000000000000000000000000000815250611dd8565b61119683611dd8565b611e0690919063ffffffff16565b90506111c96111b285611dd8565b6111bb83611dd8565b611e0690919063ffffffff16565b905061122361120c6040805190810160405280600881526020017f2c526573756c742c000000000000000000000000000000000000000000000000815250611dd8565b61121583611dd8565b611e0690919063ffffffff16565b905061127d6112666040805190810160405280600c81526020017f414c4c4f5745442c6e65772c0000000000000000000000000000000000000000815250611dd8565b61126f83611dd8565b611e0690919063ffffffff16565b90506112a261128b83611dd8565b61129483611dd8565b611e0690919063ffffffff16565b90507f366514b314adbd130b4541a8f3b2df5d5dc545733f1ed56e49114df383a943d0816040518080602001828103825283818151815260200191508051906020019080838360005b838110156113065780820151818401526020810190506112eb565b50505050905090810190601f1680156113335780820380516001836020036101000a031916815260200191505b509250505060405180910390a150505050505050505050505050565b60008181548110151561135e57fe5b90600052602060002090016000915090505481565b61137b611ecf565b611383611ecf565b61138b611ecf565b600061139686611694565b93506113a185611694565b92506113fb6113e46040805190810160405280600181526020017f2c00000000000000000000000000000000000000000000000000000000000000815250611dd8565b6113ed86611dd8565b611e0690919063ffffffff16565b9150600090505b6002805490508110156114bd5761145461143d61143860028481548110151561142757fe5b906000526020600020900154611694565b611dd8565b61144684611dd8565b611e0690919063ffffffff16565b91506114ae6114976040805190810160405280600181526020017f2c00000000000000000000000000000000000000000000000000000000000000815250611dd8565b6114a084611dd8565b611e0690919063ffffffff16565b91508080600101915050611402565b6115156114fe6040805190810160405280600581526020017f545845452c000000000000000000000000000000000000000000000000000000815250611dd8565b61150784611dd8565b611e0690919063ffffffff16565b915061153a61152384611dd8565b61152c84611dd8565b611e0690919063ffffffff16565b915061159461157d6040805190810160405280600881526020017f2c526573756c742c000000000000000000000000000000000000000000000000815250611dd8565b61158684611dd8565b611e0690919063ffffffff16565b91506115ee6115d76040805190810160405280600781526020017f414c4c4f57454400000000000000000000000000000000000000000000000000815250611dd8565b6115e084611dd8565b611e0690919063ffffffff16565b91507fe91c1a47ea6d41851d213cdc310f816449e3c27c7e566f7aaba0eccbbca1225f826040518080602001828103825283818151815260200191508051906020019080838360005b83811015611652578082015181840152602081019050611637565b50505050905090810190601f16801561167f5780820380516001836020036101000a031916815260200191505b509250505060405180910390a1505050505050565b61169c611ecf565b6116a4611ee3565b60008060006116b1611ee3565b60206040518059106116c05750595b9080825280601f01601f1916602001820160405250945060009350600092505b602083101561179e578260080260020a876001900402600102915060007f010000000000000000000000000000000000000000000000000000000000000002827effffffffffffffffffffffffffffffffffffffffffffffffffffffffffffff19161415156117915781858581518110151561175857fe5b9060200101907effffffffffffffffffffffffffffffffffffffffffffffffffffffffffffff1916908160001a90535083806001019450505b82806001019350506116e0565b836040518059106117ac5750595b9080825280601f01601f19166020018201604052509050600092505b838310156118745784838151811015156117de57fe5b9060200101517f010000000000000000000000000000000000000000000000000000000000000090047f010000000000000000000000000000000000000000000000000000000000000002818481518110151561183757fe5b9060200101907effffffffffffffffffffffffffffffffffffffffffffffffffffffffffffff1916908160001a90535082806001019350506117c8565b8095505050505050919050565b611889611ecf565b611891611ecf565b611899611ecf565b6118a1611ecf565b6118a9611ecf565b60006118b3611ecf565b6118bb611ecf565b7fd0a263cd95976195bad2baaeb1898252900f7b0e8faae8c2d215aedb3f7e428a6040518080602001828103825260138152602001807f546f70207365745061636b61676553746174650000000000000000000000000081525060200191505060405180910390a161192c8d611694565b97506119378c611694565b965061195c60028b81548110151561194b57fe5b906000526020600020900154611694565b955061198160028c81548110151561197057fe5b906000526020600020900154611694565b945061198c89611694565b9350896003819055506119a28c60019004611d2f565b92506119ad83611694565b9150611a076119f06040805190810160405280600481526020017f2c49442c00000000000000000000000000000000000000000000000000000000815250611dd8565b6119f989611dd8565b611e0690919063ffffffff16565b9050611a2c611a1589611dd8565b611a1e83611dd8565b611e0690919063ffffffff16565b9050611a86611a6f6040805190810160405280600981526020017f2c63757272656e742c0000000000000000000000000000000000000000000000815250611dd8565b611a7883611dd8565b611e0690919063ffffffff16565b9050611aab611a9486611dd8565b611a9d83611dd8565b611e0690919063ffffffff16565b9050611b05611aee6040805190810160405280600681526020017f2c6e6578742c0000000000000000000000000000000000000000000000000000815250611dd8565b611af783611dd8565b611e0690919063ffffffff16565b9050611b2a611b1387611dd8565b611b1c83611dd8565b611e0690919063ffffffff16565b9050611b84611b6d6040805190810160405280600681526020017f2c545845452c0000000000000000000000000000000000000000000000000000815250611dd8565b611b7683611dd8565b611e0690919063ffffffff16565b9050611ba9611b9285611dd8565b611b9b83611dd8565b611e0690919063ffffffff16565b9050611c03611bec6040805190810160405280600881526020017f2c526573756c742c000000000000000000000000000000000000000000000000815250611dd8565b611bf583611dd8565b611e0690919063ffffffff16565b9050611c5d611c466040805190810160405280600c81526020017f414c4c4f5745442c6e65772c0000000000000000000000000000000000000000815250611dd8565b611c4f83611dd8565b611e0690919063ffffffff16565b9050611c82611c6b83611dd8565b611c7483611dd8565b611e0690919063ffffffff16565b90507ffe9062e820eff8a7630952bf56db24af3943b7beb14c22603af8697b7e6e8993816040518080602001828103825283818151815260200191508051906020019080838360005b83811015611ce6578082015181840152602081019050611ccb565b50505050905090810190601f168015611d135780820380516001836020036101000a031916815260200191505b509250505060405180910390a150505050505050505050505050565b600080821415611d61577f30000000000000000000000000000000000000000000000000000000000000009050611dd0565b5b6000821115611dcf576101008160019004811515611d7c57fe5b0460010290507f01000000000000000000000000000000000000000000000000000000000000006030600a84811515611db157fe5b06010260010281179050600a82811515611dc757fe5b049150611d62565b5b809050919050565b611de0611ef7565b600060208301905060408051908101604052808451815260200182815250915050919050565b611e0e611ecf565b611e16611ecf565b60008360000151856000015101604051805910611e305750595b9080825280601f01601f19166020018201604052509150602082019050611e608186602001518760000151611e84565b611e798560000151820185602001518660000151611e84565b819250505092915050565b60005b602082101515611eac5782518452602084019350602083019250602082039150611e87565b6001826020036101000a0390508019835116818551168181178652505050505050565b602060405190810160405280600081525090565b602060405190810160405280600081525090565b6040805190810160405280600081526020016000815250905600a165627a7a72305820b003be898ba6c6aff592bfd20f784bf89c9a876b55912a34debe4a9a4c2299d40029",
  "source": "pragma solidity ^0.4.11;\n// We have to specify what version of compiler this code will compile with\n\nimport \"./strings.sol\";\n\ncontract MITSContract {\n\n  using strings for *;\n\n  event AddPlantAssetEvent(\n    string assetInfo\n  );\n  event SetPlantStateEvent(\n    string assetInfo\n  );\n  event GetPlantStatesEvent(\n    string assetInfo\n  );\n\n  event AddPackageAssetEvent(\n    string assetInfo\n  );\n  event SetPackageStateEvent(\n    string assetInfo\n  );\n  event GetPackageStatesEvent(\n    string assetInfo\n  );\n\n  //  debugging events\n  event TestOutputStringEvent(\n    string s\n  );\n  event TestOutputBytes32Event(\n    bytes32 x\n  );\n  event TestOutputIntEvent(\n    int x\n  );\n\n  event AYTEvent(\n    string ayt\n  );\n\n\n  bytes32[] public plantStateList;\n  uint256 plantStateIndex = 0;\n\n  bytes32[] public packageStateList;\n  uint256 packageStateIndex = 0;\n\n  function MITSContract(bytes32[] plantStateNames, bytes32[] packageStateNames) {\n      plantStateList = plantStateNames;\n      plantStateIndex = 0;\n      packageStateList = packageStateNames;\n      packageStateIndex = 0;\n  }\n\n  // Utility functions\n  //https://ethereum.stackexchange.com/questions/29295/how-to-convert-a-bytes-to-string-in-solidity\n  function bytes32ToString(bytes32 x) constant returns (string) {\n    //TestOutputBytes32Event(x);\n    bytes memory bytesString = new bytes(32);\n    uint charCount = 0;\n    for (uint j = 0; j < 32; j++) {\n        byte char = byte(bytes32(uint(x) * 2 ** (8 * j)));\n        if (char != 0) {\n            bytesString[charCount] = char;\n            charCount++;\n        }\n    }\n    bytes memory bytesStringTrimmed = new bytes(charCount);\n    for (j = 0; j < charCount; j++) {\n        bytesStringTrimmed[j] = bytesString[j];\n    }\n    return string(bytesStringTrimmed);\n  }\n\n  //https://ethereum.stackexchange.com/questions/6591/conversion-of-uint-to-string\n  function uintToBytes(uint v) constant returns (bytes32 ret) {\n    if (v == 0) {\n        ret = '0';\n    }\n    else {\n        while (v > 0) {\n            ret = bytes32(uint(ret) / (2 ** 8));\n            ret |= bytes32(((v % 10) + 48) * 2 ** (8 * 31));\n            v /= 10;\n        }\n    }\n    return ret;\n  }\n\n  function AYT(){\n    var s = \"AYT\".toSlice().concat(\",MITS YIA\".toSlice());\n    AYTEvent(s);\n  }\n\n  function addPlantAsset(bytes32 _unique_id, bytes32 _create_op, bytes32 _asset_type, bytes32 _txee_id){\n    string memory id = bytes32ToString(_unique_id);\n    var create_op = bytes32ToString(_create_op);\n    var asset_type = bytes32ToString(_asset_type);\n    var txee_id = bytes32ToString(_txee_id);\n\n    var s = create_op.toSlice().concat(\",ID,\".toSlice());\n    s = s.toSlice().concat(id.toSlice());\n    s = s.toSlice().concat(\",\".toSlice());\n    s = s.toSlice().concat(asset_type.toSlice());\n    s = s.toSlice().concat(\",TXEE,\".toSlice());\n    s = s.toSlice().concat(txee_id.toSlice());\n    s = s.toSlice().concat(\",Result,\".toSlice());\n    s = s.toSlice().concat(\"ALLOWED\".toSlice());\n    AddPlantAssetEvent(s);\n  }\n\n  // set alowed with no regard to \"smart contract\"\n  function setPlantState(bytes32 _unique_id, bytes32 _state_category, int _current_state, int _new_state, bytes32 _txee_id){\n    TestOutputStringEvent(\"Top setPlantState\");\n    string memory id = bytes32ToString(_unique_id);\n    var state_category = bytes32ToString(_state_category);\n    var new_state = bytes32ToString(plantStateList[uint256(_new_state)]);\n    var current_state = bytes32ToString(plantStateList[uint256(_current_state)]);\n    var txee_id = bytes32ToString(_txee_id);\n    plantStateIndex = uint256(_new_state);\n    var stg_val = uintToBytes(uint(plantStateIndex));\n    var state_stg = bytes32ToString(stg_val);\n\n    var s = state_category.toSlice().concat(\",ID,\".toSlice());\n    s = s.toSlice().concat(id.toSlice());\n    s = s.toSlice().concat(\",current,\".toSlice());\n    s = s.toSlice().concat(current_state.toSlice());\n    s = s.toSlice().concat(\",next,\".toSlice());\n    s = s.toSlice().concat(new_state.toSlice());\n    s = s.toSlice().concat(\",TXEE,\".toSlice());\n    s = s.toSlice().concat(txee_id.toSlice());\n    s = s.toSlice().concat(\",Result,\".toSlice());\n    s = s.toSlice().concat(\"ALLOWED,new,\".toSlice());\n    s = s.toSlice().concat(state_stg.toSlice());\n    SetPlantStateEvent(s);\n  }\n\n  function GetPlantStates(bytes32 _state_category, bytes32 _txee_id){\n    var state_category = bytes32ToString(_state_category);\n    var txee_id = bytes32ToString(_txee_id);\n    var s = state_category.toSlice().concat(\",\".toSlice());\n    for(uint i = 0; i < uint(plantStateList.length); i++){\n      s = s.toSlice().concat(bytes32ToString(plantStateList[uint256(i)]).toSlice());\n      s = s.toSlice().concat(\",\".toSlice());\n    }\n    s = s.toSlice().concat(\"TXEE,\".toSlice());\n    s = s.toSlice().concat(txee_id.toSlice());\n    s = s.toSlice().concat(\",Result,\".toSlice());\n    s = s.toSlice().concat(\"ALLOWED\".toSlice());\n    GetPlantStatesEvent(s);\n  }\n\n  function addPackageAsset(bytes32 _unique_id, bytes32 _create_op, bytes32 _asset_type, bytes32 _txee_id){\n    string memory id = bytes32ToString(_unique_id);\n    var create_op = bytes32ToString(_create_op);\n    var asset_type = bytes32ToString(_asset_type);\n    var txee_id = bytes32ToString(_txee_id);\n\n    var s = create_op.toSlice().concat(\",ID,\".toSlice());\n    s = s.toSlice().concat(id.toSlice());\n    s = s.toSlice().concat(\",\".toSlice());\n    s = s.toSlice().concat(asset_type.toSlice());\n    s = s.toSlice().concat(\",TXEE,\".toSlice());\n    s = s.toSlice().concat(txee_id.toSlice());\n    s = s.toSlice().concat(\",Result,\".toSlice());\n    s = s.toSlice().concat(\"ALLOWED\".toSlice());\n    AddPackageAssetEvent(s);\n  }\n\n  // set alowed with no regard to \"smart contract\"\n  function setPackageState(bytes32 _unique_id, bytes32 _state_category, int _current_state, int _new_state, bytes32 _txee_id){\n    TestOutputStringEvent(\"Top setPackageState\");\n    string memory id = bytes32ToString(_unique_id);\n    var state_category = bytes32ToString(_state_category);\n    var new_state = bytes32ToString(packageStateList[uint256(_new_state)]);\n    var current_state = bytes32ToString(packageStateList[uint256(_current_state)]);\n    var txee_id = bytes32ToString(_txee_id);\n    packageStateIndex = uint256(_new_state);\n    var stg_val = uintToBytes(uint(_state_category));\n    var state_stg = bytes32ToString(stg_val);\n\n    var s = state_category.toSlice().concat(\",ID,\".toSlice());\n    s = s.toSlice().concat(id.toSlice());\n    s = s.toSlice().concat(\",current,\".toSlice());\n    s = s.toSlice().concat(current_state.toSlice());\n    s = s.toSlice().concat(\",next,\".toSlice());\n    s = s.toSlice().concat(new_state.toSlice());\n    s = s.toSlice().concat(\",TXEE,\".toSlice());\n    s = s.toSlice().concat(txee_id.toSlice());\n    s = s.toSlice().concat(\",Result,\".toSlice());\n    s = s.toSlice().concat(\"ALLOWED,new,\".toSlice());\n    s = s.toSlice().concat(state_stg.toSlice());\n    SetPackageStateEvent(s);\n  }\n\n  function GetPackageStates(bytes32 _state_category, bytes32 _txee_id){\n    var state_category = bytes32ToString(_state_category);\n    var txee_id = bytes32ToString(_txee_id);\n    var s = state_category.toSlice().concat(\",\".toSlice());\n    for(uint i = 0; i < uint(packageStateList.length); i++){\n      s = s.toSlice().concat(bytes32ToString(packageStateList[uint256(i)]).toSlice());\n      s = s.toSlice().concat(\",\".toSlice());\n    }\n    s = s.toSlice().concat(\"TXEE,\".toSlice());\n    s = s.toSlice().concat(txee_id.toSlice());\n    s = s.toSlice().concat(\",Result,\".toSlice());\n    s = s.toSlice().concat(\"ALLOWED\".toSlice());\n    GetPackageStatesEvent(s);\n  }\n}\n",
  "sourcePath": "/home/smartin/hack_2018/proto/contracts/MITSContract.sol",
  "compiler": {
    "name": "solc",
    "version": "0.4.18+commit.9cf6e910.Emscripten.clang"
  },
  "schemaVersion": "1.0.1",
  "updatedAt": "2018-02-11T17:57:07.212Z"
}